{
  "contractName": "Ownable",
  "abi": [
    {
      "inputs": [],
      "stateMutability": "nonpayable",
      "type": "constructor"
    },
    {
      "anonymous": false,
      "inputs": [
        {
          "indexed": true,
          "internalType": "address",
          "name": "previousManager",
          "type": "address"
        },
        {
          "indexed": true,
          "internalType": "address",
          "name": "newManager",
          "type": "address"
        }
      ],
      "name": "ManagershipTransferred",
      "type": "event"
    },
    {
      "anonymous": false,
      "inputs": [
        {
          "indexed": true,
          "internalType": "address",
          "name": "previousOwner",
          "type": "address"
        },
        {
          "indexed": true,
          "internalType": "address",
          "name": "newOwner",
          "type": "address"
        }
      ],
      "name": "OwnershipTransferred",
      "type": "event"
    },
    {
      "inputs": [],
      "name": "owner",
      "outputs": [
        {
          "internalType": "address",
          "name": "",
          "type": "address"
        }
      ],
      "stateMutability": "view",
      "type": "function"
    },
    {
      "inputs": [],
      "name": "renounceOwnership",
      "outputs": [],
      "stateMutability": "nonpayable",
      "type": "function"
    },
    {
      "inputs": [
        {
          "internalType": "address",
          "name": "newOwner",
          "type": "address"
        }
      ],
      "name": "transferOwnership",
      "outputs": [],
      "stateMutability": "nonpayable",
      "type": "function"
    },
    {
      "inputs": [
        {
          "internalType": "address",
          "name": "newManager",
          "type": "address"
        }
      ],
      "name": "transferManager",
      "outputs": [],
      "stateMutability": "nonpayable",
      "type": "function"
    }
  ],
  "bytecode": "0x608060405234801561001057600080fd5b5060006100216100c460201b60201c565b9050806000806101000a81548173ffffffffffffffffffffffffffffffffffffffff021916908373ffffffffffffffffffffffffffffffffffffffff1602179055508073ffffffffffffffffffffffffffffffffffffffff16600073ffffffffffffffffffffffffffffffffffffffff167f8be0079c531659141344cd1fd0a4f28419497f9722a3daafe3b4186f6b6457e060405160405180910390a3506100cc565b600033905090565b61084d806100db6000396000f3fe608060405234801561001057600080fd5b506004361061004c5760003560e01c8063715018a6146100515780638da5cb5b1461005b578063ba0e930a14610079578063f2fde38b14610095575b600080fd5b6100596100b1565b005b610063610204565b6040516100709190610676565b60405180910390f35b610093600480360381019061008e91906105d1565b61022d565b005b6100af60048036038101906100aa91906105d1565b6103f2565b005b60008054906101000a900473ffffffffffffffffffffffffffffffffffffffff1673ffffffffffffffffffffffffffffffffffffffff166100f06105b4565b73ffffffffffffffffffffffffffffffffffffffff1614610146576040517f08c379a000000000000000000000000000000000000000000000000000000000815260040161013d906106d1565b60405180910390fd5b600073ffffffffffffffffffffffffffffffffffffffff1660008054906101000a900473ffffffffffffffffffffffffffffffffffffffff1673ffffffffffffffffffffffffffffffffffffffff167f8be0079c531659141344cd1fd0a4f28419497f9722a3daafe3b4186f6b6457e060405160405180910390a360008060006101000a81548173ffffffffffffffffffffffffffffffffffffffff021916908373ffffffffffffffffffffffffffffffffffffffff160217905550565b60008060009054906101000a900473ffffffffffffffffffffffffffffffffffffffff16905090565b60008054906101000a900473ffffffffffffffffffffffffffffffffffffffff1673ffffffffffffffffffffffffffffffffffffffff1661026c6105b4565b73ffffffffffffffffffffffffffffffffffffffff16146102c2576040517f08c379a00000000000000000000000000000000000000000000000000000000081526004016102b9906106d1565b60405180910390fd5b600073ffffffffffffffffffffffffffffffffffffffff168173ffffffffffffffffffffffffffffffffffffffff161415610332576040517f08c379a0000000000000000000000000000000000000000000000000000000008152600401610329906106b1565b60405180910390fd5b8073ffffffffffffffffffffffffffffffffffffffff16600160009054906101000a900473ffffffffffffffffffffffffffffffffffffffff1673ffffffffffffffffffffffffffffffffffffffff167f697e4e68d3879b0dd3414a88905117bac8f0a54b0cd8e7779f909bf1a1cf568360405160405180910390a380600160006101000a81548173ffffffffffffffffffffffffffffffffffffffff021916908373ffffffffffffffffffffffffffffffffffffffff16021790555050565b60008054906101000a900473ffffffffffffffffffffffffffffffffffffffff1673ffffffffffffffffffffffffffffffffffffffff166104316105b4565b73ffffffffffffffffffffffffffffffffffffffff1614610487576040517f08c379a000000000000000000000000000000000000000000000000000000000815260040161047e906106d1565b60405180910390fd5b600073ffffffffffffffffffffffffffffffffffffffff168173ffffffffffffffffffffffffffffffffffffffff1614156104f7576040517f08c379a00000000000000000000000000000000000000000000000000000000081526004016104ee90610691565b60405180910390fd5b8073ffffffffffffffffffffffffffffffffffffffff1660008054906101000a900473ffffffffffffffffffffffffffffffffffffffff1673ffffffffffffffffffffffffffffffffffffffff167f8be0079c531659141344cd1fd0a4f28419497f9722a3daafe3b4186f6b6457e060405160405180910390a3806000806101000a81548173ffffffffffffffffffffffffffffffffffffffff021916908373ffffffffffffffffffffffffffffffffffffffff16021790555050565b600033905090565b6000813590506105cb81610800565b92915050565b6000602082840312156105e7576105e6610734565b5b60006105f5848285016105bc565b91505092915050565b61060781610702565b82525050565b600061061a6026836106f1565b915061062582610739565b604082019050919050565b600061063d6028836106f1565b915061064882610788565b604082019050919050565b60006106606020836106f1565b915061066b826107d7565b602082019050919050565b600060208201905061068b60008301846105fe565b92915050565b600060208201905081810360008301526106aa8161060d565b9050919050565b600060208201905081810360008301526106ca81610630565b9050919050565b600060208201905081810360008301526106ea81610653565b9050919050565b600082825260208201905092915050565b600061070d82610714565b9050919050565b600073ffffffffffffffffffffffffffffffffffffffff82169050919050565b600080fd5b7f4f776e61626c653a206e6577206f776e657220697320746865207a65726f206160008201527f6464726573730000000000000000000000000000000000000000000000000000602082015250565b7f4f776e61626c653a206e6577206d616e6167657220697320746865207a65726f60008201527f2061646472657373000000000000000000000000000000000000000000000000602082015250565b7f4f776e61626c653a2063616c6c6572206973206e6f7420746865206f776e6572600082015250565b61080981610702565b811461081457600080fd5b5056fea2646970667358221220c16a3d94c81193b320ecde57758f0c523adbac80bf12f969bcfec6bfa54874aa64736f6c63430008060033",
  "immutableReferences": {},
  "source": "// SPDX-License-Identifier: Unlicensed\r\n\r\npragma solidity ^0.8.6;\r\n\r\n// import \"@openzeppelin/contracts/utils/Context.sol\"\r\nabstract contract Context {\r\n\r\n    constructor () { }\r\n\r\n    function _msgSender() internal view returns (address payable) {\r\n\r\n        return payable(msg.sender);\r\n    }\r\n\r\n    function _msgData() internal view returns (bytes memory) {\r\n\r\n        this;\r\n        return msg.data;\r\n    }\r\n}\r\n\r\n// import \"@openzeppelin/contracts/access/Ownable.sol\"\r\ncontract Ownable is Context {\r\n    address private _owner;\r\n    address private _manager;\r\n\r\n    event OwnershipTransferred(address indexed previousOwner, address indexed newOwner);\r\n    event ManagershipTransferred(address indexed previousManager, address indexed newManager);\r\n\r\n    constructor () {\r\n\r\n        address msgSender = _msgSender();\r\n        _owner = msgSender;\r\n        emit OwnershipTransferred(address(0), msgSender);\r\n    }\r\n\r\n    function owner() public view returns (address) {\r\n\r\n        return _owner;\r\n    }\r\n\r\n    modifier onlyOwner() {\r\n\r\n        require((_msgSender() == _owner), \"Ownable: caller is not the owner\");\r\n        _;\r\n    }\r\n    modifier onlyManager() {\r\n\r\n        require((_msgSender() == _manager), \"Ownable: caller is not the manager\");\r\n        _;\r\n    }\r\n    function renounceOwnership() public onlyOwner {\r\n\r\n        emit OwnershipTransferred(_owner, address(0));\r\n        _owner = address(0);\r\n    }\r\n\r\n    function transferOwnership(address newOwner) public onlyOwner {\r\n        require(newOwner != address(0), \"Ownable: new owner is the zero address\");\r\n        emit OwnershipTransferred(_owner, newOwner);\r\n        _owner = newOwner;\r\n    }\r\n\r\n    function transferManager(address newManager) public onlyOwner {\r\n        require(newManager != address(0), \"Ownable: new manager is the zero address\");\r\n\r\n        emit ManagershipTransferred(_manager, newManager);\r\n        _manager = newManager;\r\n    }\r\n}\r\n\r\n// import \"@openzeppelin/contracts/token/ERC20/IERC20.sol\"\r\ninterface IERC20 {\r\n\r\n    function totalSupply() external view returns (uint256);\r\n    function balanceOf(address account) external view returns (uint256);\r\n    function transfer(address recipient, uint256 amount) external returns (bool);\r\n    function allowance(address owner, address spender) external view returns (uint256);\r\n    function approve(address spender, uint256 amount) external returns (bool);\r\n    function transferFrom(address sender, address recipient, uint256 amount) external returns (bool);\r\n\r\n    event Transfer(address indexed from, address indexed to, uint256 value);\r\n    event Approval(address indexed owner, address indexed spender, uint256 value);\r\n}\r\n\r\nlibrary SafeMath {\r\n\r\n    function add(uint256 a, uint256 b) internal pure returns (uint256) {\r\n\r\n        uint256 c = a + b;\r\n        require(c >= a, \"SafeMath: addition overflow\");\r\n\r\n        return c;\r\n    }\r\n\r\n    function sub(uint256 a, uint256 b) internal pure returns (uint256) {\r\n\r\n        return sub(a, b, \"SafeMath: subtraction overflow\");\r\n    }\r\n\r\n    function sub(uint256 a, uint256 b, string memory errorMessage) internal pure returns (uint256) {\r\n\r\n        require(b <= a, errorMessage);\r\n        uint256 c = a - b;\r\n\r\n        return c;\r\n    }\r\n\r\n    function mul(uint256 a, uint256 b) internal pure returns (uint256) {\r\n\r\n        if (a == 0) {\r\n            return 0;\r\n        }\r\n\r\n        uint256 c = a * b;\r\n        require(c / a == b, \"SafeMath: multiplication overflow\");\r\n\r\n        return c;\r\n    }\r\n\r\n    function div(uint256 a, uint256 b) internal pure returns (uint256) {\r\n\r\n        return div(a, b, \"SafeMath: division by zero\");\r\n    }\r\n\r\n    function div(uint256 a, uint256 b, string memory errorMessage) internal pure returns (uint256) {\r\n\r\n        require(b > 0, errorMessage);\r\n        uint256 c = a / b;\r\n\r\n        return c;\r\n    }\r\n\r\n    function mod(uint256 a, uint256 b) internal pure returns (uint256) {\r\n\r\n        return mod(a, b, \"SafeMath: modulo by zero\");\r\n    }\r\n\r\n    function mod(uint256 a, uint256 b, string memory errorMessage) internal pure returns (uint256) {\r\n\r\n        require(b != 0, errorMessage);\r\n        return a % b;\r\n    }\r\n}\r\n\r\ncontract ERC20 is Context, IERC20, Ownable {\r\n\r\n    using SafeMath for uint256;\r\n\r\n    mapping (address => uint256) private _balances;\r\n\r\n    mapping (address => mapping (address => uint256)) private _allowances;\r\n\r\n    uint256 private _totalSupply;\r\n    uint256 private duration=0;\r\n    uint256 private lastrun;\r\n    bool public tokenLock = false;\r\n\r\n    constructor () {\r\n        lastrun=block.timestamp;\r\n    }\r\n\r\n    function totalSupply() public override view returns (uint256) {\r\n\r\n        return _totalSupply;\r\n    }\r\n\r\n    function balanceOf(address account) public override view returns (uint256) {\r\n\r\n        return _balances[account];\r\n    }\r\n\r\n    function transfer(address recipient, uint256 amount) public override returns (bool) {\r\n\r\n        _transfer(_msgSender(), recipient, amount);\r\n        return true;\r\n    }\r\n\r\n    function allowance(address owner, address spender) public override view returns (uint256) {\r\n\r\n        return _allowances[owner][spender];\r\n    }\r\n\r\n    function approve(address spender, uint256 amount) public override returns (bool) {\r\n\r\n        _approve(_msgSender(), spender, amount);\r\n        return true;\r\n    }\r\n\r\n    function transferFrom(address sender, address recipient, uint256 amount) public override returns (bool) {\r\n\r\n        _transfer(sender, recipient, amount);\r\n        _approve(sender, _msgSender(), _allowances[sender][_msgSender()].sub(amount, \"ERC20: transfer amount exceeds allowance\"));\r\n        return true;\r\n    }\r\n\r\n    function increaseAllowance(address spender, uint256 addedValue) public returns (bool) {\r\n\r\n        _approve(_msgSender(), spender, _allowances[_msgSender()][spender].add(addedValue));\r\n        return true;\r\n    }\r\n\r\n    function decreaseAllowance(address spender, uint256 subtractedValue) public returns (bool) {\r\n\r\n        _approve(_msgSender(), spender, _allowances[_msgSender()][spender].sub(subtractedValue, \"ERC20: decreased allowance below zero\"));\r\n        return true;\r\n    }\r\n\r\n    function _transfer(address sender, address recipient, uint256 amount) internal {\r\n\r\n        require(isTransferable() == true);\r\n        require(isblockperiod() == true);\r\n        require(sender != address(0), \"ERC20: transfer from the zero address\");\r\n        require(recipient != address(0), \"ERC20: transfer to the zero address\");\r\n\r\n        _balances[sender] = _balances[sender].sub(amount, \"ERC20: transfer amount exceeds balance\");\r\n        _balances[recipient] = _balances[recipient].add(amount);\r\n        emit Transfer(sender, recipient, amount);\r\n    }\r\n\r\n    function _mint(address account, uint256 amount) internal {\r\n\r\n        require(account != address(0), \"ERC20: mint to the zero address\");\r\n\r\n        _totalSupply = _totalSupply.add(amount);\r\n        _balances[account] = _balances[account].add(amount);\r\n        emit Transfer(address(0), account, amount);\r\n    }\r\n\r\n    function _burn(address account, uint256 amount) internal {\r\n\r\n        require(account != address(0), \"ERC20: burn from the zero address\");\r\n\r\n        _balances[account] = _balances[account].sub(amount, \"ERC20: burn amount exceeds balance\");\r\n        _totalSupply = _totalSupply.sub(amount);\r\n        emit Transfer(account, address(0), amount);\r\n    }\r\n\r\n    function _approve(address owner, address spender, uint256 amount) internal {\r\n\r\n        require(isTransferable() == true);\r\n        require(isblockperiod() == true);\r\n        require(owner != address(0), \"ERC20: approve from the zero address\");\r\n        require(spender != address(0), \"ERC20: approve to the zero address\");\r\n\r\n        _allowances[owner][spender] = amount;\r\n        emit Approval(owner, spender, amount);\r\n    }\r\n\r\n    function _burnFrom(address account, uint256 amount) internal {\r\n\r\n        _burn(account, amount);\r\n        _approve(account, _msgSender(), _allowances[account][_msgSender()].sub(amount, \"ERC20: burn amount exceeds allowance\"));\r\n    }\r\n    \r\n    function isTransferable() private view returns (bool)\r\n    {\r\n        if(tokenLock == false)\r\n        {\r\n            return true;\r\n        }\r\n        else if(msg.sender == owner())\r\n        {\r\n            return true;\r\n        }\r\n        \r\n        return false;\r\n    }\r\n    \r\n    function setTokenUnlock() onlyManager public\r\n    {\r\n        require(tokenLock == true);        \r\n        tokenLock = false;\r\n    }\r\n    \r\n    function setTokenLock() onlyManager public\r\n    {\r\n        require(tokenLock == false);        \r\n        tokenLock = true;\r\n    }\r\n\r\n    function isblockperiod() private view returns (bool)\r\n    {\r\n        if(block.timestamp-lastrun>duration)\r\n        {\r\n            return true;\r\n        }        \r\n        return false;\r\n    }\r\n    function setblockperiod(uint256 _duration) onlyManager public{\r\n        lastrun=block.timestamp;\r\n        duration=_duration;\r\n    }\r\n}\r\n\r\ncontract Token is ERC20 {\r\n\r\n    string constant public name = \"MikeBart\";\r\n    string constant public symbol = \"MBart\";\r\n    uint8 constant public decimals = 18;\r\n    uint256 constant public initialSupply = 1000 * 10**18;\r\n\r\n    constructor () {\r\n\r\n        _mint(msg.sender, initialSupply);\r\n    }\r\n    \r\n    function showblock() public view returns(uint256){\r\n        return block.timestamp;\r\n    }\r\n}\r\n",
  "sourcePath": "E:\\Workspace\\Realestate-presale-project\\contracts\\Token.sol",
  "compiler": {
    "name": "solc",
    "version": "0.8.6+commit.11564f7e.Emscripten.clang"
  },
  "schemaVersion": "3.4.3",
  "updatedAt": "2021-11-30T23:44:37.324Z",
  "devdoc": {
    "kind": "dev",
    "methods": {},
    "version": 1
  },
  "userdoc": {
    "kind": "user",
    "methods": {},
    "version": 1
  }
}