{
  "contractName": "PreSale",
  "abi": [
    {
      "inputs": [
        {
          "internalType": "uint256",
          "name": "rate",
          "type": "uint256"
        },
        {
          "internalType": "address",
          "name": "wallet",
          "type": "address"
        },
        {
          "internalType": "contract IERC20",
          "name": "token",
          "type": "address"
        }
      ],
      "stateMutability": "nonpayable",
      "type": "constructor"
    },
    {
      "anonymous": false,
      "inputs": [
        {
          "indexed": false,
          "internalType": "address",
          "name": "receiver",
          "type": "address"
        },
        {
          "indexed": false,
          "internalType": "uint256",
          "name": "amount",
          "type": "uint256"
        }
      ],
      "name": "AirdropClaimed",
      "type": "event"
    },
    {
      "anonymous": false,
      "inputs": [
        {
          "indexed": false,
          "internalType": "address[]",
          "name": "receiver",
          "type": "address[]"
        },
        {
          "indexed": false,
          "internalType": "uint256[]",
          "name": "amount",
          "type": "uint256[]"
        }
      ],
      "name": "DropSent",
      "type": "event"
    },
    {
      "anonymous": false,
      "inputs": [
        {
          "indexed": true,
          "internalType": "address",
          "name": "previousOwner",
          "type": "address"
        },
        {
          "indexed": true,
          "internalType": "address",
          "name": "newOwner",
          "type": "address"
        }
      ],
      "name": "OwnershipTransferred",
      "type": "event"
    },
    {
      "anonymous": false,
      "inputs": [
        {
          "indexed": true,
          "internalType": "address",
          "name": "purchaser",
          "type": "address"
        },
        {
          "indexed": true,
          "internalType": "address",
          "name": "beneficiary",
          "type": "address"
        },
        {
          "indexed": false,
          "internalType": "uint256",
          "name": "value",
          "type": "uint256"
        },
        {
          "indexed": false,
          "internalType": "uint256",
          "name": "amount",
          "type": "uint256"
        }
      ],
      "name": "TokensPurchased",
      "type": "event"
    },
    {
      "inputs": [],
      "name": "_rate",
      "outputs": [
        {
          "internalType": "uint256",
          "name": "",
          "type": "uint256"
        }
      ],
      "stateMutability": "view",
      "type": "function",
      "constant": true
    },
    {
      "inputs": [],
      "name": "availableTokensICO",
      "outputs": [
        {
          "internalType": "uint256",
          "name": "",
          "type": "uint256"
        }
      ],
      "stateMutability": "view",
      "type": "function",
      "constant": true
    },
    {
      "inputs": [],
      "name": "beginICO",
      "outputs": [
        {
          "internalType": "uint256",
          "name": "",
          "type": "uint256"
        }
      ],
      "stateMutability": "view",
      "type": "function",
      "constant": true
    },
    {
      "inputs": [],
      "name": "claimtokenlock",
      "outputs": [
        {
          "internalType": "bool",
          "name": "",
          "type": "bool"
        }
      ],
      "stateMutability": "view",
      "type": "function",
      "constant": true
    },
    {
      "inputs": [],
      "name": "endICO",
      "outputs": [
        {
          "internalType": "uint256",
          "name": "",
          "type": "uint256"
        }
      ],
      "stateMutability": "view",
      "type": "function",
      "constant": true
    },
    {
      "inputs": [],
      "name": "hardCap",
      "outputs": [
        {
          "internalType": "uint256",
          "name": "",
          "type": "uint256"
        }
      ],
      "stateMutability": "view",
      "type": "function",
      "constant": true
    },
    {
      "inputs": [],
      "name": "isOwner",
      "outputs": [
        {
          "internalType": "bool",
          "name": "",
          "type": "bool"
        }
      ],
      "stateMutability": "view",
      "type": "function",
      "constant": true
    },
    {
      "inputs": [],
      "name": "owner",
      "outputs": [
        {
          "internalType": "address",
          "name": "",
          "type": "address"
        }
      ],
      "stateMutability": "view",
      "type": "function",
      "constant": true
    },
    {
      "inputs": [],
      "name": "presaleResult",
      "outputs": [
        {
          "internalType": "bool",
          "name": "",
          "type": "bool"
        }
      ],
      "stateMutability": "view",
      "type": "function",
      "constant": true
    },
    {
      "inputs": [],
      "name": "renounceOwnership",
      "outputs": [],
      "stateMutability": "nonpayable",
      "type": "function"
    },
    {
      "inputs": [],
      "name": "softCap",
      "outputs": [
        {
          "internalType": "uint256",
          "name": "",
          "type": "uint256"
        }
      ],
      "stateMutability": "view",
      "type": "function",
      "constant": true
    },
    {
      "inputs": [
        {
          "internalType": "address",
          "name": "newOwner",
          "type": "address"
        }
      ],
      "name": "transferOwnership",
      "outputs": [],
      "stateMutability": "nonpayable",
      "type": "function"
    },
    {
      "inputs": [],
      "name": "walletHardCap",
      "outputs": [
        {
          "internalType": "uint256",
          "name": "",
          "type": "uint256"
        }
      ],
      "stateMutability": "view",
      "type": "function",
      "constant": true
    },
    {
      "inputs": [],
      "name": "walletSoftCap",
      "outputs": [
        {
          "internalType": "uint256",
          "name": "",
          "type": "uint256"
        }
      ],
      "stateMutability": "view",
      "type": "function",
      "constant": true
    },
    {
      "stateMutability": "payable",
      "type": "receive",
      "payable": true
    },
    {
      "inputs": [
        {
          "internalType": "uint256",
          "name": "startDate",
          "type": "uint256"
        },
        {
          "internalType": "uint256",
          "name": "endDate",
          "type": "uint256"
        },
        {
          "internalType": "uint256",
          "name": "_walletSoftCap",
          "type": "uint256"
        },
        {
          "internalType": "uint256",
          "name": "_walletHardCap",
          "type": "uint256"
        },
        {
          "internalType": "uint256",
          "name": "_availableTokens",
          "type": "uint256"
        },
        {
          "internalType": "uint256",
          "name": "_softCap",
          "type": "uint256"
        },
        {
          "internalType": "uint256",
          "name": "_hardCap",
          "type": "uint256"
        }
      ],
      "name": "startICO",
      "outputs": [],
      "stateMutability": "nonpayable",
      "type": "function"
    },
    {
      "inputs": [],
      "name": "stopICO",
      "outputs": [],
      "stateMutability": "nonpayable",
      "type": "function"
    },
    {
      "inputs": [
        {
          "internalType": "address",
          "name": "beneficiary",
          "type": "address"
        }
      ],
      "name": "buyTokens",
      "outputs": [],
      "stateMutability": "payable",
      "type": "function",
      "payable": true
    },
    {
      "inputs": [
        {
          "internalType": "address",
          "name": "beneficiary",
          "type": "address"
        }
      ],
      "name": "claimToken",
      "outputs": [],
      "stateMutability": "nonpayable",
      "type": "function"
    },
    {
      "inputs": [
        {
          "internalType": "address",
          "name": "beneficiary",
          "type": "address"
        }
      ],
      "name": "claimBNB",
      "outputs": [],
      "stateMutability": "nonpayable",
      "type": "function"
    },
    {
      "inputs": [],
      "name": "withdraw",
      "outputs": [],
      "stateMutability": "nonpayable",
      "type": "function"
    },
    {
      "inputs": [
        {
          "internalType": "uint256",
          "name": "newEndDate",
          "type": "uint256"
        }
      ],
      "name": "setEndDate",
      "outputs": [],
      "stateMutability": "nonpayable",
      "type": "function"
    },
    {
      "inputs": [
        {
          "internalType": "uint256",
          "name": "newWalletSoftCap",
          "type": "uint256"
        }
      ],
      "name": "setWalletSoftCap",
      "outputs": [],
      "stateMutability": "nonpayable",
      "type": "function"
    },
    {
      "inputs": [
        {
          "internalType": "uint256",
          "name": "newWalletHardCap",
          "type": "uint256"
        }
      ],
      "name": "setWalletHardCap",
      "outputs": [],
      "stateMutability": "nonpayable",
      "type": "function"
    },
    {
      "inputs": [
        {
          "internalType": "uint256",
          "name": "newSoftCap",
          "type": "uint256"
        }
      ],
      "name": "setSoftCap",
      "outputs": [],
      "stateMutability": "nonpayable",
      "type": "function"
    },
    {
      "inputs": [
        {
          "internalType": "uint256",
          "name": "newHardCap",
          "type": "uint256"
        }
      ],
      "name": "setHardCap",
      "outputs": [],
      "stateMutability": "nonpayable",
      "type": "function"
    },
    {
      "inputs": [
        {
          "internalType": "uint256",
          "name": "newRate",
          "type": "uint256"
        }
      ],
      "name": "setRate",
      "outputs": [],
      "stateMutability": "nonpayable",
      "type": "function"
    },
    {
      "inputs": [
        {
          "internalType": "uint256",
          "name": "amount",
          "type": "uint256"
        }
      ],
      "name": "setAvailableTokens",
      "outputs": [],
      "stateMutability": "nonpayable",
      "type": "function"
    },
    {
      "inputs": [
        {
          "internalType": "uint256",
          "name": "_lockdays",
          "type": "uint256"
        }
      ],
      "name": "setLockDays",
      "outputs": [],
      "stateMutability": "nonpayable",
      "type": "function"
    },
    {
      "inputs": [],
      "name": "getToken",
      "outputs": [
        {
          "internalType": "contract IERC20",
          "name": "",
          "type": "address"
        }
      ],
      "stateMutability": "view",
      "type": "function",
      "constant": true
    },
    {
      "inputs": [],
      "name": "getWallet",
      "outputs": [
        {
          "internalType": "address",
          "name": "",
          "type": "address"
        }
      ],
      "stateMutability": "view",
      "type": "function",
      "constant": true
    },
    {
      "inputs": [],
      "name": "getRate",
      "outputs": [
        {
          "internalType": "uint256",
          "name": "",
          "type": "uint256"
        }
      ],
      "stateMutability": "view",
      "type": "function",
      "constant": true
    },
    {
      "inputs": [],
      "name": "weiRaised",
      "outputs": [
        {
          "internalType": "uint256",
          "name": "",
          "type": "uint256"
        }
      ],
      "stateMutability": "view",
      "type": "function",
      "constant": true
    }
  ],
  "bytecode": "0x608060405262015180600d556000600f553480156200001d57600080fd5b506040516200327a3803806200327a833981810160405281019062000043919062000319565b60016000806101000a81548160ff02191690831515021790555060006200006f620002cc60201b60201c565b905080600060016101000a81548173ffffffffffffffffffffffffffffffffffffffff021916908373ffffffffffffffffffffffffffffffffffffffff1602179055508073ffffffffffffffffffffffffffffffffffffffff16600073ffffffffffffffffffffffffffffffffffffffff167f8be0079c531659141344cd1fd0a4f28419497f9722a3daafe3b4186f6b6457e060405160405180910390a3506000831162000154576040517f08c379a00000000000000000000000000000000000000000000000000000000081526004016200014b906200042e565b60405180910390fd5b600073ffffffffffffffffffffffffffffffffffffffff168273ffffffffffffffffffffffffffffffffffffffff161415620001c7576040517f08c379a0000000000000000000000000000000000000000000000000000000008152600401620001be90620003ea565b60405180910390fd5b600073ffffffffffffffffffffffffffffffffffffffff168173ffffffffffffffffffffffffffffffffffffffff1614156200023a576040517f08c379a000000000000000000000000000000000000000000000000000000000815260040162000231906200040c565b60405180910390fd5b8260018190555081600360006101000a81548173ffffffffffffffffffffffffffffffffffffffff021916908373ffffffffffffffffffffffffffffffffffffffff16021790555080600260006101000a81548173ffffffffffffffffffffffffffffffffffffffff021916908373ffffffffffffffffffffffffffffffffffffffff160217905550505050620005cd565b600033905090565b600081519050620002e5816200057f565b92915050565b600081519050620002fc8162000599565b92915050565b6000815190506200031381620005b3565b92915050565b600080600060608486031215620003355762000334620004b3565b5b6000620003458682870162000302565b93505060206200035886828701620002d4565b92505060406200036b86828701620002eb565b9150509250925092565b60006200038460248362000450565b91506200039182620004b8565b604082019050919050565b6000620003ab60238362000450565b9150620003b88262000507565b604082019050919050565b6000620003d260138362000450565b9150620003df8262000556565b602082019050919050565b60006020820190508181036000830152620004058162000375565b9050919050565b6000602082019050818103600083015262000427816200039c565b9050919050565b600060208201905081810360008301526200044981620003c3565b9050919050565b600082825260208201905092915050565b60006200046e8262000489565b9050919050565b6000620004828262000461565b9050919050565b600073ffffffffffffffffffffffffffffffffffffffff82169050919050565b6000819050919050565b600080fd5b7f5072652d53616c653a2077616c6c657420697320746865207a65726f2061646460008201527f7265737300000000000000000000000000000000000000000000000000000000602082015250565b7f5072652d53616c653a20746f6b656e20697320746865207a65726f206164647260008201527f6573730000000000000000000000000000000000000000000000000000000000602082015250565b7f5072652d53616c653a2072617465206973203000000000000000000000000000600082015250565b6200058a8162000461565b81146200059657600080fd5b50565b620005a48162000475565b8114620005b057600080fd5b50565b620005be81620004a9565b8114620005ca57600080fd5b50565b612c9d80620005dd6000396000f3fe6080604052600436106101e75760003560e01c80638f32d59b11610102578063d69634d211610095578063f6d893ec11610064578063f6d893ec146106bd578063fb86a404146106e6578063fdc25b5e14610711578063fdebcfa01461073c57610263565b8063d69634d214610622578063e5ba3cb01461064d578063ec8ac4d814610678578063f2fde38b1461069457610263565b8063c8e569a8116100d1578063c8e569a81461058e578063d18d944b146105a5578063d28bf5da146105ce578063d5cf5c72146105f957610263565b80638f32d59b146104e4578063906a26e01461050f578063a41a028b1461053a578063ae12213b1461056557610263565b80634042b66f1161017a578063679aefce11610149578063679aefce1461044c578063715018a61461047757806383bebced1461048e5780638da5cb5b146104b957610263565b80634042b66f146103a25780634f248409146103cd5780635d672d10146103f857806360d28eda1461042157610263565b806332f289cf116101b657806332f289cf1461031057806334fcf437146103395780633784f000146103625780633ccfd60b1461038b57610263565b8063132996041461026857806321df0da7146102935780632d9a152b146102be5780632fe11558146102e757610263565b3661026357600854421180156101ff57506000600954115b801561020c575060095442105b156102265761022161021c610765565b61076d565b610261565b6040517f08c379a000000000000000000000000000000000000000000000000000000000815260040161025890612453565b60405180910390fd5b005b600080fd5b34801561027457600080fd5b5061027d6109ec565b60405161028a9190612217565b60405180910390f35b34801561029f57600080fd5b506102a8610a16565b6040516102b59190612276565b60405180910390f35b3480156102ca57600080fd5b506102e560048036038101906102e09190611db3565b610a40565b005b3480156102f357600080fd5b5061030e60048036038101906103099190611e0d565b610c15565b005b34801561031c57600080fd5b5061033760048036038101906103329190611db3565b610c66565b005b34801561034557600080fd5b50610360600480360381019061035b9190611e0d565b610e09565b005b34801561036e57600080fd5b5061038960048036038101906103849190611e0d565b610e5a565b005b34801561039757600080fd5b506103a0610f31565b005b3480156103ae57600080fd5b506103b7611026565b6040516103c49190612513565b60405180910390f35b3480156103d957600080fd5b506103e2611030565b6040516103ef9190612513565b60405180910390f35b34801561040457600080fd5b5061041f600480360381019061041a9190611e67565b611036565b005b34801561042d57600080fd5b506104366112b7565b6040516104439190612513565b60405180910390f35b34801561045857600080fd5b506104616112bd565b60405161046e9190612513565b60405180910390f35b34801561048357600080fd5b5061048c6112c7565b005b34801561049a57600080fd5b506104a36113ce565b6040516104b09190612513565b60405180910390f35b3480156104c557600080fd5b506104ce6113d4565b6040516104db9190612217565b60405180910390f35b3480156104f057600080fd5b506104f96113fd565b604051610506919061225b565b60405180910390f35b34801561051b57600080fd5b5061052461145b565b6040516105319190612513565b60405180910390f35b34801561054657600080fd5b5061054f611461565b60405161055c9190612513565b60405180910390f35b34801561057157600080fd5b5061058c60048036038101906105879190611e0d565b611467565b005b34801561059a57600080fd5b506105a3611503565b005b3480156105b157600080fd5b506105cc60048036038101906105c79190611e0d565b61160b565b005b3480156105da57600080fd5b506105e361165c565b6040516105f09190612513565b60405180910390f35b34801561060557600080fd5b50610620600480360381019061061b9190611e0d565b611662565b005b34801561062e57600080fd5b506106376116b3565b604051610644919061225b565b60405180910390f35b34801561065957600080fd5b506106626116c6565b60405161066f919061225b565b60405180910390f35b610692600480360381019061068d9190611db3565b61076d565b005b3480156106a057600080fd5b506106bb60048036038101906106b69190611db3565b6116d9565b005b3480156106c957600080fd5b506106e460048036038101906106df9190611e0d565b61172c565b005b3480156106f257600080fd5b506106fb61177d565b6040516107089190612513565b60405180910390f35b34801561071d57600080fd5b50610726611783565b6040516107339190612513565b60405180910390f35b34801561074857600080fd5b50610763600480360381019061075e9190611e0d565b611789565b005b600033905090565b60008054906101000a900460ff166107ba576040517f08c379a00000000000000000000000000000000000000000000000000000000081526004016107b1906124d3565b60405180910390fd5b60008060006101000a81548160ff02191690831515021790555060006009541180156107e7575060095442105b80156107f557506000600c54115b610834576040517f08c379a000000000000000000000000000000000000000000000000000000000815260040161082b906122b3565b60405180910390fd5b6000349050610843828261181d565b600061084e8261195f565b90506108658260075461199290919063ffffffff16565b60078190555080600c546108799190612654565b600c819055506000601060008573ffffffffffffffffffffffffffffffffffffffff1673ffffffffffffffffffffffffffffffffffffffff16815260200190815260200160002060006101000a81548160ff02191690831515021790555081601160008573ffffffffffffffffffffffffffffffffffffffff1673ffffffffffffffffffffffffffffffffffffffff1681526020019081526020016000208190555080601260008573ffffffffffffffffffffffffffffffffffffffff1673ffffffffffffffffffffffffffffffffffffffff168152602001908152602001600020819055508273ffffffffffffffffffffffffffffffffffffffff1661097e610765565b73ffffffffffffffffffffffffffffffffffffffff167f6faf93231a456e552dbc9961f58d9713ee4f2e69d15f1975b050ef0911053a7b84846040516109c592919061252e565b60405180910390a3505060016000806101000a81548160ff02191690831515021790555050565b6000600360009054906101000a900473ffffffffffffffffffffffffffffffffffffffff16905090565b6000600260009054906101000a900473ffffffffffffffffffffffffffffffffffffffff16905090565b4260095410610a84576040517f08c379a0000000000000000000000000000000000000000000000000000000008152600401610a7b906124f3565b60405180910390fd5b60001515601460009054906101000a900460ff1615151415610c125760001515601060008373ffffffffffffffffffffffffffffffffffffffff1673ffffffffffffffffffffffffffffffffffffffff16815260200190815260200160002060009054906101000a900460ff16151514610b33576040517f08c379a0000000000000000000000000000000000000000000000000000000008152600401610b2a90612433565b60405180910390fd5b6001601060008373ffffffffffffffffffffffffffffffffffffffff1673ffffffffffffffffffffffffffffffffffffffff16815260200190815260200160002060006101000a81548160ff0219169083151502179055508073ffffffffffffffffffffffffffffffffffffffff166108fc601160008473ffffffffffffffffffffffffffffffffffffffff1673ffffffffffffffffffffffffffffffffffffffff168152602001908152602001600020549081150290604051600060405180830381858888f19350505050158015610c10573d6000803e3d6000fd5b505b50565b610c1d6113fd565b610c5c576040517f08c379a0000000000000000000000000000000000000000000000000000000008152600401610c5390612413565b60405180910390fd5b80600b8190555050565b4260095410610caa576040517f08c379a0000000000000000000000000000000000000000000000000000000008152600401610ca1906124f3565b60405180910390fd5b60001515601060008373ffffffffffffffffffffffffffffffffffffffff1673ffffffffffffffffffffffffffffffffffffffff16815260200190815260200160002060009054906101000a900460ff16151514610d3d576040517f08c379a0000000000000000000000000000000000000000000000000000000008152600401610d3490612393565b60405180910390fd5b610d456119f0565b60001515601460019054906101000a900460ff16151514610d6557600080fd5b6001601060008373ffffffffffffffffffffffffffffffffffffffff1673ffffffffffffffffffffffffffffffffffffffff16815260200190815260200160002060006101000a81548160ff021916908315150217905550610e0681601260008473ffffffffffffffffffffffffffffffffffffffff1673ffffffffffffffffffffffffffffffffffffffff16815260200190815260200160002054611a53565b50565b610e116113fd565b610e50576040517f08c379a0000000000000000000000000000000000000000000000000000000008152600401610e4790612413565b60405180910390fd5b8060018190555050565b610e626113fd565b610ea1576040517f08c379a0000000000000000000000000000000000000000000000000000000008152600401610e9890612413565b60405180910390fd5b428111610ee3576040517f08c379a0000000000000000000000000000000000000000000000000000000008152600401610eda906123f3565b60405180910390fd5b6008548111610f27576040517f08c379a0000000000000000000000000000000000000000000000000000000008152600401610f1e906123f3565b60405180910390fd5b8060098190555050565b610f396113fd565b610f78576040517f08c379a0000000000000000000000000000000000000000000000000000000008152600401610f6f90612413565b60405180910390fd5b60004711610fbb576040517f08c379a0000000000000000000000000000000000000000000000000000000008152600401610fb290612333565b60405180910390fd5b600360009054906101000a900473ffffffffffffffffffffffffffffffffffffffff1673ffffffffffffffffffffffffffffffffffffffff166108fc479081150290604051600060405180830381858888f19350505050158015611023573d6000803e3d6000fd5b50565b6000600754905090565b60095481565b61103e6113fd565b61107d576040517f08c379a000000000000000000000000000000000000000000000000000000000815260040161107490612413565b60405180910390fd5b42600954106110c1576040517f08c379a00000000000000000000000000000000000000000000000000000000081526004016110b8906124f3565b60405180910390fd5b428711611103576040517f08c379a00000000000000000000000000000000000000000000000000000000081526004016110fa90612493565b60405180910390fd5b428611611145576040517f08c379a000000000000000000000000000000000000000000000000000000000815260040161113c906123f3565b60405180910390fd5b6000831180156111f45750600260009054906101000a900473ffffffffffffffffffffffffffffffffffffffff1673ffffffffffffffffffffffffffffffffffffffff166318160ddd6040518163ffffffff1660e01b815260040160206040518083038186803b1580156111b857600080fd5b505afa1580156111cc573d6000803e3d6000fd5b505050506040513d601f19601f820116820180604052508101906111f09190611e3a565b8311155b611233576040517f08c379a000000000000000000000000000000000000000000000000000000000815260040161122a90612373565b60405180910390fd5b60008511611276576040517f08c379a000000000000000000000000000000000000000000000000000000000815260040161126d90612353565b60405180910390fd5b866008819055508560098190555085600e8190555082600c8190555084600a8190555083600b81905550816004819055508060058190555050505050505050565b60085481565b6000600154905090565b6112cf6113fd565b61130e576040517f08c379a000000000000000000000000000000000000000000000000000000000815260040161130590612413565b60405180910390fd5b600073ffffffffffffffffffffffffffffffffffffffff16600060019054906101000a900473ffffffffffffffffffffffffffffffffffffffff1673ffffffffffffffffffffffffffffffffffffffff167f8be0079c531659141344cd1fd0a4f28419497f9722a3daafe3b4186f6b6457e060405160405180910390a360008060016101000a81548173ffffffffffffffffffffffffffffffffffffffff021916908373ffffffffffffffffffffffffffffffffffffffff160217905550565b60015481565b60008060019054906101000a900473ffffffffffffffffffffffffffffffffffffffff16905090565b60008060019054906101000a900473ffffffffffffffffffffffffffffffffffffffff1673ffffffffffffffffffffffffffffffffffffffff1661143f610765565b73ffffffffffffffffffffffffffffffffffffffff1614905090565b60045481565b600c5481565b61146f6113fd565b6114ae576040517f08c379a00000000000000000000000000000000000000000000000000000000081526004016114a590612413565b60405180910390fd5b42600954106114f2576040517f08c379a00000000000000000000000000000000000000000000000000000000081526004016114e9906124f3565b60405180910390fd5b80600f8190555042600e8190555050565b61150b6113fd565b61154a576040517f08c379a000000000000000000000000000000000000000000000000000000000815260040161154190612413565b60405180910390fd5b600060095411801561155d575060095442105b801561156b57506000600c54115b6115aa576040517f08c379a00000000000000000000000000000000000000000000000000000000081526004016115a1906122b3565b60405180910390fd5b60006009819055506004546007541180156115c85750600554600754105b156115ed576001601460006101000a81548160ff021916908315150217905550611609565b6000601460006101000a81548160ff0219169083151502179055505b565b6116136113fd565b611652576040517f08c379a000000000000000000000000000000000000000000000000000000000815260040161164990612413565b60405180910390fd5b8060058190555050565b600b5481565b61166a6113fd565b6116a9576040517f08c379a00000000000000000000000000000000000000000000000000000000081526004016116a090612413565b60405180910390fd5b8060048190555050565b601460019054906101000a900460ff1681565b601460009054906101000a900460ff1681565b6116e16113fd565b611720576040517f08c379a000000000000000000000000000000000000000000000000000000000815260040161171790612413565b60405180910390fd5b61172981611b07565b50565b6117346113fd565b611773576040517f08c379a000000000000000000000000000000000000000000000000000000000815260040161176a90612413565b60405180910390fd5b80600c8190555050565b60055481565b600a5481565b6117916113fd565b6117d0576040517f08c379a00000000000000000000000000000000000000000000000000000000081526004016117c790612413565b60405180910390fd5b60008111611813576040517f08c379a000000000000000000000000000000000000000000000000000000000815260040161180a90612353565b60405180910390fd5b80600a8190555050565b600073ffffffffffffffffffffffffffffffffffffffff168273ffffffffffffffffffffffffffffffffffffffff16141561188d576040517f08c379a000000000000000000000000000000000000000000000000000000000815260040161188490612473565b60405180910390fd5b60008114156118d1576040517f08c379a00000000000000000000000000000000000000000000000000000000081526004016118c8906122f3565b60405180910390fd5b600a54811015611916576040517f08c379a000000000000000000000000000000000000000000000000000000000815260040161190d906124b3565b60405180910390fd5b600b5481111561195b576040517f08c379a0000000000000000000000000000000000000000000000000000000008152600401611952906123d3565b60405180910390fd5b5050565b600061198b620f424061197d60015485611c3790919063ffffffff16565b611cb290919063ffffffff16565b9050919050565b60008082846119a19190612573565b9050838110156119e6576040517f08c379a00000000000000000000000000000000000000000000000000000000081526004016119dd90612313565b60405180910390fd5b8091505092915050565b6000600d54600e5442611a039190612654565b611a0d91906125c9565b9050600f54811015611a35576001601460016101000a81548160ff0219169083151502179055505b6000601460016101000a81548160ff02191690831515021790555050565b600260009054906101000a900473ffffffffffffffffffffffffffffffffffffffff1673ffffffffffffffffffffffffffffffffffffffff1663a9059cbb83836040518363ffffffff1660e01b8152600401611ab0929190612232565b602060405180830381600087803b158015611aca57600080fd5b505af1158015611ade573d6000803e3d6000fd5b505050506040513d601f19601f82011682018060405250810190611b029190611de0565b505050565b600073ffffffffffffffffffffffffffffffffffffffff168173ffffffffffffffffffffffffffffffffffffffff161415611b77576040517f08c379a0000000000000000000000000000000000000000000000000000000008152600401611b6e906122d3565b60405180910390fd5b8073ffffffffffffffffffffffffffffffffffffffff16600060019054906101000a900473ffffffffffffffffffffffffffffffffffffffff1673ffffffffffffffffffffffffffffffffffffffff167f8be0079c531659141344cd1fd0a4f28419497f9722a3daafe3b4186f6b6457e060405160405180910390a380600060016101000a81548173ffffffffffffffffffffffffffffffffffffffff021916908373ffffffffffffffffffffffffffffffffffffffff16021790555050565b600080831415611c4a5760009050611cac565b60008284611c5891906125fa565b9050828482611c6791906125c9565b14611ca7576040517f08c379a0000000000000000000000000000000000000000000000000000000008152600401611c9e906123b3565b60405180910390fd5b809150505b92915050565b6000611cf483836040518060400160405280601a81526020017f536166654d6174683a206469766973696f6e206279207a65726f000000000000815250611cfc565b905092915050565b60008083118290611d43576040517f08c379a0000000000000000000000000000000000000000000000000000000008152600401611d3a9190612291565b60405180910390fd5b5060008385611d5291906125c9565b9050809150509392505050565b600081359050611d6e81612c22565b92915050565b600081519050611d8381612c39565b92915050565b600081359050611d9881612c50565b92915050565b600081519050611dad81612c50565b92915050565b600060208284031215611dc957611dc8612785565b5b6000611dd784828501611d5f565b91505092915050565b600060208284031215611df657611df5612785565b5b6000611e0484828501611d74565b91505092915050565b600060208284031215611e2357611e22612785565b5b6000611e3184828501611d89565b91505092915050565b600060208284031215611e5057611e4f612785565b5b6000611e5e84828501611d9e565b91505092915050565b600080600080600080600060e0888a031215611e8657611e85612785565b5b6000611e948a828b01611d89565b9750506020611ea58a828b01611d89565b9650506040611eb68a828b01611d89565b9550506060611ec78a828b01611d89565b9450506080611ed88a828b01611d89565b93505060a0611ee98a828b01611d89565b92505060c0611efa8a828b01611d89565b91505092959891949750929550565b611f1281612688565b82525050565b611f218161269a565b82525050565b611f30816126d0565b82525050565b6000611f4182612557565b611f4b8185612562565b9350611f5b8185602086016126f4565b611f648161278a565b840191505092915050565b6000611f7c601c83612562565b9150611f878261279b565b602082019050919050565b6000611f9f602683612562565b9150611faa826127c4565b604082019050919050565b6000611fc2601883612562565b9150611fcd82612813565b602082019050919050565b6000611fe5601b83612562565b9150611ff08261283c565b602082019050919050565b6000612008601f83612562565b915061201382612865565b602082019050919050565b600061202b602383612562565b91506120368261288e565b604082019050919050565b600061204e603a83612562565b9150612059826128dd565b604082019050919050565b6000612071602483612562565b915061207c8261292c565b604082019050919050565b6000612094602183612562565b915061209f8261297b565b604082019050919050565b60006120b7601f83612562565b91506120c2826129ca565b602082019050919050565b60006120da602083612562565b91506120e5826129f3565b602082019050919050565b60006120fd602083612562565b915061210882612a1c565b602082019050919050565b6000612120602b83612562565b915061212b82612a45565b604082019050919050565b6000612143601283612562565b915061214e82612a94565b602082019050919050565b6000612166602983612562565b915061217182612abd565b604082019050919050565b6000612189602283612562565b915061219482612b0c565b604082019050919050565b60006121ac602483612562565b91506121b782612b5b565b604082019050919050565b60006121cf601f83612562565b91506121da82612baa565b602082019050919050565b60006121f2602283612562565b91506121fd82612bd3565b604082019050919050565b612211816126c6565b82525050565b600060208201905061222c6000830184611f09565b92915050565b60006040820190506122476000830185611f09565b6122546020830184612208565b9392505050565b60006020820190506122706000830184611f18565b92915050565b600060208201905061228b6000830184611f27565b92915050565b600060208201905081810360008301526122ab8184611f36565b905092915050565b600060208201905081810360008301526122cc81611f6f565b9050919050565b600060208201905081810360008301526122ec81611f92565b9050919050565b6000602082019050818103600083015261230c81611fb5565b9050919050565b6000602082019050818103600083015261232c81611fd8565b9050919050565b6000602082019050818103600083015261234c81611ffb565b9050919050565b6000602082019050818103600083015261236c8161201e565b9050919050565b6000602082019050818103600083015261238c81612041565b9050919050565b600060208201905081810360008301526123ac81612064565b9050919050565b600060208201905081810360008301526123cc81612087565b9050919050565b600060208201905081810360008301526123ec816120aa565b9050919050565b6000602082019050818103600083015261240c816120cd565b9050919050565b6000602082019050818103600083015261242c816120f0565b9050919050565b6000602082019050818103600083015261244c81612113565b9050919050565b6000602082019050818103600083015261246c81612136565b9050919050565b6000602082019050818103600083015261248c81612159565b9050919050565b600060208201905081810360008301526124ac8161217c565b9050919050565b600060208201905081810360008301526124cc8161219f565b9050919050565b600060208201905081810360008301526124ec816121c2565b9050919050565b6000602082019050818103600083015261250c816121e5565b9050919050565b60006020820190506125286000830184612208565b92915050565b60006040820190506125436000830185612208565b6125506020830184612208565b9392505050565b600081519050919050565b600082825260208201905092915050565b600061257e826126c6565b9150612589836126c6565b9250827fffffffffffffffffffffffffffffffffffffffffffffffffffffffffffffffff038211156125be576125bd612727565b5b828201905092915050565b60006125d4826126c6565b91506125df836126c6565b9250826125ef576125ee612756565b5b828204905092915050565b6000612605826126c6565b9150612610836126c6565b9250817fffffffffffffffffffffffffffffffffffffffffffffffffffffffffffffffff048311821515161561264957612648612727565b5b828202905092915050565b600061265f826126c6565b915061266a836126c6565b92508282101561267d5761267c612727565b5b828203905092915050565b6000612693826126a6565b9050919050565b60008115159050919050565b600073ffffffffffffffffffffffffffffffffffffffff82169050919050565b6000819050919050565b60006126db826126e2565b9050919050565b60006126ed826126a6565b9050919050565b60005b838110156127125780820151818401526020810190506126f7565b83811115612721576000848401525b50505050565b7f4e487b7100000000000000000000000000000000000000000000000000000000600052601160045260246000fd5b7f4e487b7100000000000000000000000000000000000000000000000000000000600052601260045260246000fd5b600080fd5b6000601f19601f8301169050919050565b7f5072652d53616c653a2049434f206d7573742062652061637469766500000000600082015250565b7f4f776e61626c653a206e6577206f776e657220697320746865207a65726f206160008201527f6464726573730000000000000000000000000000000000000000000000000000602082015250565b7f5072652d53616c653a20776569416d6f756e7420697320300000000000000000600082015250565b7f536166654d6174683a206164646974696f6e206f766572666c6f770000000000600082015250565b7f5072652d53616c653a20436f6e747261637420686173206e6f206d6f6e657900600082015250565b7f5072652d53616c653a205f77616c6c6574536f66744361702073686f756c642060008201527f3e20300000000000000000000000000000000000000000000000000000000000602082015250565b7f5072652d53616c653a20617661696c61626c65546f6b656e732073686f756c6460008201527f206265203e203020616e64203c3d20746f74616c537570706c79000000000000602082015250565b7f5072652d53616c653a20596f752064696420636c61696d20796f757220746f6b60008201527f656e732100000000000000000000000000000000000000000000000000000000602082015250565b7f536166654d6174683a206d756c7469706c69636174696f6e206f766572666c6f60008201527f7700000000000000000000000000000000000000000000000000000000000000602082015250565b7f6861766520746f2073656e64206d61783a2077616c6c65744861726443617000600082015250565b7f5072652d53616c653a206475726174696f6e2073686f756c64206265203e2030600082015250565b7f4f776e61626c653a2063616c6c6572206973206e6f7420746865206f776e6572600082015250565b7f5072652d53616c653a204f6e6c792049434f206d656d6265722063616e20726560008201527f66756e6420636f696e7321000000000000000000000000000000000000000000602082015250565b7f5072652d53616c6520697320636c6f7365640000000000000000000000000000600082015250565b7f5072652d53616c653a2062656e656669636961727920697320746865207a657260008201527f6f20616464726573730000000000000000000000000000000000000000000000602082015250565b7f5072652d53616c653a2073746172742074696d652073686f756c64206265203e60008201527f2030000000000000000000000000000000000000000000000000000000000000602082015250565b7f6861766520746f2073656e64206174206c656173743a2077616c6c6574536f6660008201527f7443617000000000000000000000000000000000000000000000000000000000602082015250565b7f5265656e7472616e637947756172643a207265656e7472616e742063616c6c00600082015250565b7f5072652d53616c653a2049434f2073686f756c64206e6f74206265206163746960008201527f7665000000000000000000000000000000000000000000000000000000000000602082015250565b612c2b81612688565b8114612c3657600080fd5b50565b612c428161269a565b8114612c4d57600080fd5b50565b612c59816126c6565b8114612c6457600080fd5b5056fea26469706673582212200132dde1aca41daae5f9ab5d71ec0ce419bd3b6b3e86c2675835be98777230ab64736f6c63430008060033",
  "immutableReferences": {},
  "source": "// SPDX-License-Identifier: Unlicensed\r\n\r\npragma solidity ^0.8.6;\r\n\r\nabstract contract Context {\r\n\r\n    constructor () { }\r\n\r\n    function _msgSender() internal view returns (address) {\r\n\r\n        return msg.sender;\r\n    }\r\n\r\n    function _msgData() internal view returns (bytes memory) {\r\n\r\n        this; // silence state mutability warning without generating bytecode - see https://github.com/ethereum/solidity/issues/2691\r\n        return msg.data;\r\n    }\r\n}\r\n\r\n\r\nabstract contract Ownable is Context {\r\n\r\n    address private _owner;\r\n\r\n    event OwnershipTransferred(address indexed previousOwner, address indexed newOwner);\r\n\r\n    constructor () {\r\n\r\n        address msgSender = _msgSender();\r\n        _owner = msgSender;\r\n        emit OwnershipTransferred(address(0), msgSender);\r\n    }\r\n\r\n    function owner() public view returns (address) {\r\n\r\n        return _owner;\r\n    }\r\n\r\n    modifier onlyOwner() {\r\n\r\n        require(isOwner(), \"Ownable: caller is not the owner\");\r\n        _;\r\n    }\r\n\r\n    function isOwner() public view returns (bool) {\r\n\r\n        return _msgSender() == _owner;\r\n    }\r\n\r\n    function renounceOwnership() public onlyOwner {\r\n\r\n        emit OwnershipTransferred(_owner, address(0));\r\n        _owner = address(0);\r\n    }\r\n\r\n    function transferOwnership(address newOwner) public onlyOwner {\r\n\r\n        _transferOwnership(newOwner);\r\n    }\r\n\r\n    function _transferOwnership(address newOwner) internal {\r\n\r\n        require(newOwner != address(0), \"Ownable: new owner is the zero address\");\r\n        emit OwnershipTransferred(_owner, newOwner);\r\n        _owner = newOwner;\r\n    }\r\n}\r\n\r\n\r\nlibrary Address {\r\n\r\n    function isContract(address account) internal view returns (bool) {\r\n\r\n        bytes32 codehash;\r\n        bytes32 accountHash = 0xc5d2460186f7233c927e7db2dcc703c0e500b653ca82273b7bfad8045d85a470;\r\n        // solhint-disable-next-line no-inline-assembly\r\n        assembly { codehash := extcodehash(account) }\r\n        return (codehash != accountHash && codehash != 0x0);\r\n    }\r\n\r\n    function toPayable(address account) internal pure returns (address) {\r\n\r\n        return address(uint160(account));\r\n    }\r\n\r\n    function sendValue(address payable recipient, uint256 amount) internal {\r\n\r\n        require(address(this).balance >= amount, \"Address: insufficient balance\");\r\n\r\n        // solhint-disable-next-line avoid-low-level-calls, avoid-call-value\r\n        (bool success, ) = recipient.call{ value: amount }(\"\");\r\n        require(success, \"Address: unable to send value, recipient may have reverted\");\r\n    }\r\n}\r\n\r\n\r\nlibrary SafeERC20 {\r\n\r\n    using SafeMath for uint256;\r\n    using Address for address;\r\n\r\n    function safeTransfer(IERC20 token, address to, uint256 value) internal {\r\n\r\n        callOptionalReturn(token, abi.encodeWithSelector(token.transfer.selector, to, value));\r\n    }\r\n\r\n    function safeTransferFrom(IERC20 token, address from, address to, uint256 value) internal {\r\n\r\n        callOptionalReturn(token, abi.encodeWithSelector(token.transferFrom.selector, from, to, value));\r\n    }\r\n\r\n    function safeApprove(IERC20 token, address spender, uint256 value) internal {\r\n\r\n        require((value == 0) || (token.allowance(address(this), spender) == 0),\r\n            \"SafeERC20: approve from non-zero to non-zero allowance\"\r\n        );\r\n        callOptionalReturn(token, abi.encodeWithSelector(token.approve.selector, spender, value));\r\n    }\r\n\r\n    function safeIncreaseAllowance(IERC20 token, address spender, uint256 value) internal {\r\n\r\n        uint256 newAllowance = token.allowance(address(this), spender).add(value);\r\n        callOptionalReturn(token, abi.encodeWithSelector(token.approve.selector, spender, newAllowance));\r\n    }\r\n\r\n    function safeDecreaseAllowance(IERC20 token, address spender, uint256 value) internal {\r\n\r\n        uint256 newAllowance = token.allowance(address(this), spender).sub(value, \"SafeERC20: decreased allowance below zero\");\r\n        callOptionalReturn(token, abi.encodeWithSelector(token.approve.selector, spender, newAllowance));\r\n    }\r\n\r\n    function callOptionalReturn(IERC20 token, bytes memory data) private {\r\n\r\n        require(address(token).isContract(), \"SafeERC20: call to non-contract\");\r\n\r\n        (bool success, bytes memory returndata) = address(token).call(data);\r\n        require(success, \"SafeERC20: low-level call failed\");\r\n\r\n        if (returndata.length > 0) { // Return data is optional\r\n\r\n            require(abi.decode(returndata, (bool)), \"SafeERC20: ERC20 operation did not succeed\");\r\n        }\r\n    }\r\n}\r\n\r\n\r\nabstract contract ReentrancyGuard {\r\n\r\n    bool private _notEntered;\r\n\r\n    constructor () {\r\n\r\n        _notEntered = true;\r\n    }\r\n\r\n    modifier nonReentrant() {\r\n\r\n        require(_notEntered, \"ReentrancyGuard: reentrant call\");\r\n\r\n        _notEntered = false;\r\n        _;\r\n        _notEntered = true;\r\n    }\r\n}\r\n\r\n\r\nlibrary SafeMath {\r\n\r\n    function add(uint256 a, uint256 b) internal pure returns (uint256) {\r\n\r\n        uint256 c = a + b;\r\n        require(c >= a, \"SafeMath: addition overflow\");\r\n\r\n        return c;\r\n    }\r\n\r\n    function sub(uint256 a, uint256 b) internal pure returns (uint256) {\r\n\r\n        return sub(a, b, \"SafeMath: subtraction overflow\");\r\n    }\r\n\r\n    function sub(uint256 a, uint256 b, string memory errorMessage) internal pure returns (uint256) {\r\n\r\n        require(b <= a, errorMessage);\r\n        uint256 c = a - b;\r\n\r\n        return c;\r\n    }\r\n\r\n    function mul(uint256 a, uint256 b) internal pure returns (uint256) {\r\n\r\n        if (a == 0) {\r\n            return 0;\r\n        }\r\n\r\n        uint256 c = a * b;\r\n        require(c / a == b, \"SafeMath: multiplication overflow\");\r\n\r\n        return c;\r\n    }\r\n\r\n    function div(uint256 a, uint256 b) internal pure returns (uint256) {\r\n\r\n        return div(a, b, \"SafeMath: division by zero\");\r\n    }\r\n\r\n    function div(uint256 a, uint256 b, string memory errorMessage) internal pure returns (uint256) {\r\n\r\n        require(b > 0, errorMessage);\r\n        uint256 c = a / b;\r\n\r\n        return c;\r\n    }\r\n\r\n    function mod(uint256 a, uint256 b) internal pure returns (uint256) {\r\n\r\n        return mod(a, b, \"SafeMath: modulo by zero\");\r\n    }\r\n\r\n    function mod(uint256 a, uint256 b, string memory errorMessage) internal pure returns (uint256) {\r\n\r\n        require(b != 0, errorMessage);\r\n        return a % b;\r\n    }\r\n}\r\n\r\n\r\ninterface IERC20 {\r\n\r\n    function totalSupply() external view returns (uint256);\r\n    function balanceOf(address account) external view returns (uint256);\r\n    function transfer(address recipient, uint256 amount) external returns (bool);\r\n    function allowance(address owner, address spender) external view returns (uint256);\r\n    function approve(address spender, uint256 amount) external returns (bool);\r\n    function transferFrom(address sender, address recipient, uint256 amount) external returns (bool);\r\n\r\n    event Transfer(address indexed from, address indexed to, uint256 value);\r\n    event Approval(address indexed owner, address indexed spender, uint256 value);\r\n}\r\n\r\ncontract PreSale is ReentrancyGuard, Context, Ownable {\r\n\r\n    using SafeMath for uint256;\r\n    using SafeERC20 for IERC20;\r\n\r\n    uint256 public _rate;\r\n    IERC20 private _token;\r\n    address private _wallet;\r\n\r\n    uint256 public softCap;\r\n    uint256 public hardCap;\r\n\r\n    uint256 private _price;\r\n    uint256 private _weiRaised;\r\n    uint256 public beginICO;\r\n    uint256 public endICO;\r\n\r\n    uint public walletSoftCap;\r\n    uint public walletHardCap;\r\n    uint public availableTokensICO;\r\n\r\n    uint256 private day=86400;\r\n    uint256 private lastRun;\r\n    uint256 private lockdays=0;\r\n    \r\n    mapping (address => bool) Claimed;\r\n    mapping (address => uint256) CoinPaid;\r\n    mapping (address => uint256) TokenBought;\r\n    mapping (address => uint256) valDrop;\r\n\r\n    bool public presaleResult;\r\n    bool public claimtokenlock;\r\n\r\n    event TokensPurchased(address indexed purchaser, address indexed beneficiary, uint256 value, uint256 amount);\r\n    event DropSent(address[]  receiver, uint256[]  amount);\r\n    event AirdropClaimed(address receiver, uint256 amount);\r\n\r\n    constructor (uint256 rate, address wallet, IERC20 token) {\r\n\r\n        require(rate > 0, \"Pre-Sale: rate is 0\");\r\n        require(wallet != address(0), \"Pre-Sale: wallet is the zero address\");\r\n        require(address(token) != address(0), \"Pre-Sale: token is the zero address\");\r\n\r\n        _rate = rate;\r\n        _wallet = wallet;\r\n        _token = token;\r\n    }\r\n\r\n\r\n    receive() external payable {\r\n\r\n        if(block.timestamp > beginICO && endICO > 0 && block.timestamp < endICO){\r\n\r\n            buyTokens(_msgSender());\r\n        } else {\r\n\r\n            revert('Pre-Sale is closed');\r\n        }\r\n    }\r\n\r\n    //Start Pre-Sale\r\n    function startICO(uint startDate, uint endDate, uint _walletSoftCap, uint _walletHardCap, uint _availableTokens, uint256 _softCap, uint256 _hardCap) external onlyOwner icoNotActive() {\r\n        require(startDate > block.timestamp, 'Pre-Sale: start time should be > 0');\r\n        require(endDate > block.timestamp, 'Pre-Sale: duration should be > 0');\r\n        require(_availableTokens > 0 && _availableTokens <= _token.totalSupply(), 'Pre-Sale: availableTokens should be > 0 and <= totalSupply');\r\n        require(_walletSoftCap > 0, 'Pre-Sale: _walletSoftCap should > 0');\r\n\r\n        beginICO = startDate;\r\n        endICO = endDate;\r\n        lastRun = endDate;\r\n        availableTokensICO = _availableTokens;\r\n\r\n        walletSoftCap = _walletSoftCap;\r\n        walletHardCap = _walletHardCap;\r\n\r\n        softCap = _softCap;\r\n        hardCap = _hardCap;\r\n    }\r\n\r\n    function stopICO() external onlyOwner icoActive() {\r\n\r\n        endICO = 0;\r\n        if(_weiRaised > softCap && _weiRaised < hardCap ) {\r\n\r\n          presaleResult = true;\r\n        } else {\r\n\r\n          presaleResult = false;\r\n        }\r\n    }\r\n\r\n    //Pre-Sale\r\n    function buyTokens(address beneficiary) public nonReentrant icoActive payable {\r\n\r\n        uint256 weiAmount = msg.value;\r\n        _preValidatePurchase(beneficiary, weiAmount);\r\n        uint256 tokens = _getTokenAmount(weiAmount);\r\n\r\n        _weiRaised = _weiRaised.add(weiAmount);\r\n        availableTokensICO = availableTokensICO - tokens;\r\n\r\n        Claimed[beneficiary] = false;\r\n        CoinPaid[beneficiary] = weiAmount;\r\n        TokenBought[beneficiary] = tokens;\r\n\r\n        emit TokensPurchased(_msgSender(), beneficiary, weiAmount, tokens);\r\n    }\r\n\r\n    function _preValidatePurchase(address beneficiary, uint256 weiAmount) internal view {\r\n\r\n        require(beneficiary != address(0), \"Pre-Sale: beneficiary is the zero address\");\r\n        require(weiAmount != 0, \"Pre-Sale: weiAmount is 0\");\r\n        require(weiAmount >= walletSoftCap, 'have to send at least: walletSoftCap');\r\n        require(weiAmount <= walletHardCap, 'have to send max: walletHardCap');\r\n        this;\r\n    }\r\n\r\n    function claimToken(address beneficiary) public icoNotActive() {\r\n\r\n      require(Claimed[beneficiary] == false, \"Pre-Sale: You did claim your tokens!\");\r\n      claimTokenLock();\r\n      require(claimtokenlock ==false);\r\n      Claimed[beneficiary] = true;\r\n\r\n      _deliverTokens(beneficiary, TokenBought[beneficiary]);\r\n    }\r\n\r\n    function claimBNB(address beneficiary) public icoNotActive() {\r\n\r\n      if(presaleResult == false) {\r\n          require(Claimed[beneficiary] == false, \"Pre-Sale: Only ICO member can refund coins!\");\r\n          Claimed[beneficiary] = true;\r\n\r\n          payable(beneficiary).transfer(CoinPaid[beneficiary]);\r\n      }\r\n    }\r\n\r\n    function _deliverTokens(address beneficiary, uint256 tokenAmount) internal {\r\n\r\n        _token.transfer(beneficiary, tokenAmount);\r\n    }\r\n\r\n\r\n    function _getTokenAmount(uint256 weiAmount) internal view returns (uint256) {\r\n\r\n        return weiAmount.mul(_rate).div(1000000);\r\n    }\r\n\r\n    function withdraw() external onlyOwner {\r\n\r\n        require(address(this).balance > 0, 'Pre-Sale: Contract has no money');\r\n        payable(_wallet).transfer(address(this).balance);\r\n    }\r\n\r\n    function setEndDate(uint256 newEndDate) public onlyOwner {\r\n        \r\n        require(newEndDate > block.timestamp, 'Pre-Sale: duration should be > 0');\r\n        require(newEndDate > beginICO, 'Pre-Sale: duration should be > 0');\r\n        endICO = newEndDate;\r\n    }\r\n    function setWalletSoftCap(uint256 newWalletSoftCap) public onlyOwner {\r\n        require(newWalletSoftCap > 0, 'Pre-Sale: _walletSoftCap should > 0');\r\n        walletSoftCap = newWalletSoftCap;\r\n    }\r\n    function setWalletHardCap(uint256 newWalletHardCap) public onlyOwner {\r\n\r\n        walletHardCap = newWalletHardCap;\r\n    }\r\n    function setSoftCap(uint256 newSoftCap) public onlyOwner {\r\n\r\n        softCap = newSoftCap;\r\n    }\r\n    function setHardCap(uint256 newHardCap) public onlyOwner {\r\n\r\n        hardCap = newHardCap;\r\n    }\r\n\r\n    function setRate(uint256 newRate) public onlyOwner {\r\n\r\n        _rate = newRate;\r\n    }\r\n    function setAvailableTokens(uint256 amount) public onlyOwner {\r\n\r\n        availableTokensICO = amount;\r\n    }\r\n    function setLockDays(uint256 _lockdays) public onlyOwner icoNotActive\r\n    {\r\n        lockdays=_lockdays;\r\n        lastRun = block.timestamp;\r\n    }\r\n    function claimTokenLock()  private\r\n    { \r\n        uint vestinglock=uint(block.timestamp - lastRun)/day;\r\n        if( vestinglock < lockdays ){\r\n            claimtokenlock= true;\r\n        }\r\n        claimtokenlock= false;\r\n    }\r\n    function getToken() public view returns (IERC20) {\r\n\r\n        return _token;\r\n    }\r\n\r\n\r\n    function getWallet() public view returns (address) {\r\n\r\n        return _wallet;\r\n    }\r\n\r\n\r\n    function getRate() public view returns (uint256) {\r\n\r\n        return _rate;\r\n    }\r\n\r\n    function weiRaised() public view returns (uint256) {\r\n\r\n        return _weiRaised;\r\n    }\r\n\r\n    modifier icoActive() {\r\n\r\n        require(endICO > 0 && block.timestamp < endICO && availableTokensICO > 0, \"Pre-Sale: ICO must be active\");\r\n        _;\r\n    }\r\n\r\n    modifier icoNotActive() {\r\n\r\n        require(endICO < block.timestamp, 'Pre-Sale: ICO should not be active');\r\n        _;\r\n    }\r\n}\r\n",
  "sourcePath": "E:\\Workspace\\Realestate-presale-project\\contracts\\Presale.sol",
  "compiler": {
    "name": "solc",
    "version": "0.8.6+commit.11564f7e.Emscripten.clang"
  },
  "schemaVersion": "3.4.3",
  "updatedAt": "2021-11-30T23:47:36.051Z",
  "networkType": "ethereum",
  "devdoc": {
    "kind": "dev",
    "methods": {},
    "version": 1
  },
  "userdoc": {
    "kind": "user",
    "methods": {},
    "version": 1
  }
}