{
  "contractName": "Token",
  "abi": [
    {
      "inputs": [],
      "stateMutability": "nonpayable",
      "type": "constructor"
    },
    {
      "anonymous": false,
      "inputs": [
        {
          "indexed": true,
          "internalType": "address",
          "name": "owner",
          "type": "address"
        },
        {
          "indexed": true,
          "internalType": "address",
          "name": "spender",
          "type": "address"
        },
        {
          "indexed": false,
          "internalType": "uint256",
          "name": "value",
          "type": "uint256"
        }
      ],
      "name": "Approval",
      "type": "event"
    },
    {
      "anonymous": false,
      "inputs": [
        {
          "indexed": true,
          "internalType": "address",
          "name": "previousManager",
          "type": "address"
        },
        {
          "indexed": true,
          "internalType": "address",
          "name": "newManager",
          "type": "address"
        }
      ],
      "name": "ManagershipTransferred",
      "type": "event"
    },
    {
      "anonymous": false,
      "inputs": [
        {
          "indexed": true,
          "internalType": "address",
          "name": "previousOwner",
          "type": "address"
        },
        {
          "indexed": true,
          "internalType": "address",
          "name": "newOwner",
          "type": "address"
        }
      ],
      "name": "OwnershipTransferred",
      "type": "event"
    },
    {
      "anonymous": false,
      "inputs": [
        {
          "indexed": true,
          "internalType": "address",
          "name": "from",
          "type": "address"
        },
        {
          "indexed": true,
          "internalType": "address",
          "name": "to",
          "type": "address"
        },
        {
          "indexed": false,
          "internalType": "uint256",
          "name": "value",
          "type": "uint256"
        }
      ],
      "name": "Transfer",
      "type": "event"
    },
    {
      "inputs": [
        {
          "internalType": "address",
          "name": "owner",
          "type": "address"
        },
        {
          "internalType": "address",
          "name": "spender",
          "type": "address"
        }
      ],
      "name": "allowance",
      "outputs": [
        {
          "internalType": "uint256",
          "name": "",
          "type": "uint256"
        }
      ],
      "stateMutability": "view",
      "type": "function",
      "constant": true
    },
    {
      "inputs": [
        {
          "internalType": "address",
          "name": "spender",
          "type": "address"
        },
        {
          "internalType": "uint256",
          "name": "amount",
          "type": "uint256"
        }
      ],
      "name": "approve",
      "outputs": [
        {
          "internalType": "bool",
          "name": "",
          "type": "bool"
        }
      ],
      "stateMutability": "nonpayable",
      "type": "function"
    },
    {
      "inputs": [
        {
          "internalType": "address",
          "name": "account",
          "type": "address"
        }
      ],
      "name": "balanceOf",
      "outputs": [
        {
          "internalType": "uint256",
          "name": "",
          "type": "uint256"
        }
      ],
      "stateMutability": "view",
      "type": "function",
      "constant": true
    },
    {
      "inputs": [],
      "name": "decimals",
      "outputs": [
        {
          "internalType": "uint8",
          "name": "",
          "type": "uint8"
        }
      ],
      "stateMutability": "view",
      "type": "function",
      "constant": true
    },
    {
      "inputs": [
        {
          "internalType": "address",
          "name": "spender",
          "type": "address"
        },
        {
          "internalType": "uint256",
          "name": "subtractedValue",
          "type": "uint256"
        }
      ],
      "name": "decreaseAllowance",
      "outputs": [
        {
          "internalType": "bool",
          "name": "",
          "type": "bool"
        }
      ],
      "stateMutability": "nonpayable",
      "type": "function"
    },
    {
      "inputs": [
        {
          "internalType": "address",
          "name": "spender",
          "type": "address"
        },
        {
          "internalType": "uint256",
          "name": "addedValue",
          "type": "uint256"
        }
      ],
      "name": "increaseAllowance",
      "outputs": [
        {
          "internalType": "bool",
          "name": "",
          "type": "bool"
        }
      ],
      "stateMutability": "nonpayable",
      "type": "function"
    },
    {
      "inputs": [],
      "name": "initialSupply",
      "outputs": [
        {
          "internalType": "uint256",
          "name": "",
          "type": "uint256"
        }
      ],
      "stateMutability": "view",
      "type": "function",
      "constant": true
    },
    {
      "inputs": [],
      "name": "name",
      "outputs": [
        {
          "internalType": "string",
          "name": "",
          "type": "string"
        }
      ],
      "stateMutability": "view",
      "type": "function",
      "constant": true
    },
    {
      "inputs": [],
      "name": "owner",
      "outputs": [
        {
          "internalType": "address",
          "name": "",
          "type": "address"
        }
      ],
      "stateMutability": "view",
      "type": "function",
      "constant": true
    },
    {
      "inputs": [],
      "name": "renounceOwnership",
      "outputs": [],
      "stateMutability": "nonpayable",
      "type": "function"
    },
    {
      "inputs": [],
      "name": "setTokenLock",
      "outputs": [],
      "stateMutability": "nonpayable",
      "type": "function"
    },
    {
      "inputs": [],
      "name": "setTokenUnlock",
      "outputs": [],
      "stateMutability": "nonpayable",
      "type": "function"
    },
    {
      "inputs": [
        {
          "internalType": "uint256",
          "name": "_duration",
          "type": "uint256"
        }
      ],
      "name": "setblockperiod",
      "outputs": [],
      "stateMutability": "nonpayable",
      "type": "function"
    },
    {
      "inputs": [],
      "name": "symbol",
      "outputs": [
        {
          "internalType": "string",
          "name": "",
          "type": "string"
        }
      ],
      "stateMutability": "view",
      "type": "function",
      "constant": true
    },
    {
      "inputs": [],
      "name": "tokenLock",
      "outputs": [
        {
          "internalType": "bool",
          "name": "",
          "type": "bool"
        }
      ],
      "stateMutability": "view",
      "type": "function",
      "constant": true
    },
    {
      "inputs": [],
      "name": "totalSupply",
      "outputs": [
        {
          "internalType": "uint256",
          "name": "",
          "type": "uint256"
        }
      ],
      "stateMutability": "view",
      "type": "function",
      "constant": true
    },
    {
      "inputs": [
        {
          "internalType": "address",
          "name": "recipient",
          "type": "address"
        },
        {
          "internalType": "uint256",
          "name": "amount",
          "type": "uint256"
        }
      ],
      "name": "transfer",
      "outputs": [
        {
          "internalType": "bool",
          "name": "",
          "type": "bool"
        }
      ],
      "stateMutability": "nonpayable",
      "type": "function"
    },
    {
      "inputs": [
        {
          "internalType": "address",
          "name": "sender",
          "type": "address"
        },
        {
          "internalType": "address",
          "name": "recipient",
          "type": "address"
        },
        {
          "internalType": "uint256",
          "name": "amount",
          "type": "uint256"
        }
      ],
      "name": "transferFrom",
      "outputs": [
        {
          "internalType": "bool",
          "name": "",
          "type": "bool"
        }
      ],
      "stateMutability": "nonpayable",
      "type": "function"
    },
    {
      "inputs": [
        {
          "internalType": "address",
          "name": "newManager",
          "type": "address"
        }
      ],
      "name": "transferManager",
      "outputs": [],
      "stateMutability": "nonpayable",
      "type": "function"
    },
    {
      "inputs": [
        {
          "internalType": "address",
          "name": "newOwner",
          "type": "address"
        }
      ],
      "name": "transferOwnership",
      "outputs": [],
      "stateMutability": "nonpayable",
      "type": "function"
    },
    {
      "inputs": [],
      "name": "showblock",
      "outputs": [
        {
          "internalType": "uint256",
          "name": "",
          "type": "uint256"
        }
      ],
      "stateMutability": "view",
      "type": "function",
      "constant": true
    }
  ],
  "bytecode": "0x608060405260006005556000600760006101000a81548160ff0219169083151502179055503480156200003157600080fd5b506000620000446200010a60201b60201c565b9050806000806101000a81548173ffffffffffffffffffffffffffffffffffffffff021916908373ffffffffffffffffffffffffffffffffffffffff1602179055508073ffffffffffffffffffffffffffffffffffffffff16600073ffffffffffffffffffffffffffffffffffffffff167f8be0079c531659141344cd1fd0a4f28419497f9722a3daafe3b4186f6b6457e060405160405180910390a350426006819055506200010433683635c9adc5dea000006200011260201b60201c565b620004cb565b600033905090565b600073ffffffffffffffffffffffffffffffffffffffff168273ffffffffffffffffffffffffffffffffffffffff16141562000185576040517f08c379a00000000000000000000000000000000000000000000000000000000081526004016200017c9062000393565b60405180910390fd5b620001a181600454620002af60201b62000f4f1790919060201c565b6004819055506200020081600260008573ffffffffffffffffffffffffffffffffffffffff1673ffffffffffffffffffffffffffffffffffffffff16815260200190815260200160002054620002af60201b62000f4f1790919060201c565b600260008473ffffffffffffffffffffffffffffffffffffffff1673ffffffffffffffffffffffffffffffffffffffff168152602001908152602001600020819055508173ffffffffffffffffffffffffffffffffffffffff16600073ffffffffffffffffffffffffffffffffffffffff167fddf252ad1be2c89b69c2b068fc378daa952ba7f163c4a11628f55a4df523b3ef83604051620002a39190620003b5565b60405180910390a35050565b6000808284620002c09190620003e3565b90508381101562000308576040517f08c379a0000000000000000000000000000000000000000000000000000000008152600401620002ff9062000371565b60405180910390fd5b8091505092915050565b600062000321601b83620003d2565b91506200032e8262000479565b602082019050919050565b600062000348601f83620003d2565b91506200035582620004a2565b602082019050919050565b6200036b8162000440565b82525050565b600060208201905081810360008301526200038c8162000312565b9050919050565b60006020820190508181036000830152620003ae8162000339565b9050919050565b6000602082019050620003cc600083018462000360565b92915050565b600082825260208201905092915050565b6000620003f08262000440565b9150620003fd8362000440565b9250827fffffffffffffffffffffffffffffffffffffffffffffffffffffffffffffffff038211156200043557620004346200044a565b5b828201905092915050565b6000819050919050565b7f4e487b7100000000000000000000000000000000000000000000000000000000600052601160045260246000fd5b7f536166654d6174683a206164646974696f6e206f766572666c6f770000000000600082015250565b7f45524332303a206d696e7420746f20746865207a65726f206164647265737300600082015250565b611ee880620004db6000396000f3fe608060405234801561001057600080fd5b50600436106101375760003560e01c8063715018a6116100b8578063a457c2d71161007c578063a457c2d714610308578063a9059cbb14610338578063ba0e930a14610368578063dd62ed3e14610384578063e718234d146103b4578063f2fde38b146103d257610137565b8063715018a6146102ae57806384300859146102b85780638da5cb5b146102c25780638ece19f6146102e057806395d89b41146102ea57610137565b8063313ce567116100ff578063313ce567146101f6578063378dc3dc1461021457806339509351146102325780635a11d4411461026257806370a082311461027e57610137565b806306fdde031461013c578063095ea7b31461015a57806318160ddd1461018a57806323b872dd146101a85780632be70434146101d8575b600080fd5b6101446103ee565b60405161015191906118ab565b60405180910390f35b610174600480360381019061016f9190611658565b610427565b6040516101819190611890565b60405180910390f35b610192610445565b60405161019f91906119ed565b60405180910390f35b6101c260048036038101906101bd9190611605565b61044f565b6040516101cf9190611890565b60405180910390f35b6101e0610528565b6040516101ed91906119ed565b60405180910390f35b6101fe610530565b60405161020b9190611a08565b60405180910390f35b61021c610535565b60405161022991906119ed565b60405180910390f35b61024c60048036038101906102479190611658565b610542565b6040516102599190611890565b60405180910390f35b61027c60048036038101906102779190611698565b6105f5565b005b61029860048036038101906102939190611598565b61069d565b6040516102a591906119ed565b60405180910390f35b6102b66106e6565b005b6102c0610839565b005b6102ca61090d565b6040516102d79190611875565b60405180910390f35b6102e8610936565b005b6102f2610a0a565b6040516102ff91906118ab565b60405180910390f35b610322600480360381019061031d9190611658565b610a43565b60405161032f9190611890565b60405180910390f35b610352600480360381019061034d9190611658565b610b10565b60405161035f9190611890565b60405180910390f35b610382600480360381019061037d9190611598565b610b2e565b005b61039e600480360381019061039991906115c5565b610cf3565b6040516103ab91906119ed565b60405180910390f35b6103bc610d7a565b6040516103c99190611890565b60405180910390f35b6103ec60048036038101906103e79190611598565b610d8d565b005b6040518060400160405280600881526020017f4d696b654261727400000000000000000000000000000000000000000000000081525081565b600061043b610434610fad565b8484610fb5565b6001905092915050565b6000600454905090565b600061045c8484846111b0565b61051d84610468610fad565b61051885604051806060016040528060288152602001611e6660289139600360008b73ffffffffffffffffffffffffffffffffffffffff1673ffffffffffffffffffffffffffffffffffffffff16815260200190815260200160002060006104ce610fad565b73ffffffffffffffffffffffffffffffffffffffff1673ffffffffffffffffffffffffffffffffffffffff1681526020019081526020016000205461146e9092919063ffffffff16565b610fb5565b600190509392505050565b600042905090565b601281565b683635c9adc5dea0000081565b60006105eb61054f610fad565b846105e68560036000610560610fad565b73ffffffffffffffffffffffffffffffffffffffff1673ffffffffffffffffffffffffffffffffffffffff16815260200190815260200160002060008973ffffffffffffffffffffffffffffffffffffffff1673ffffffffffffffffffffffffffffffffffffffff16815260200190815260200160002054610f4f90919063ffffffff16565b610fb5565b6001905092915050565b600160009054906101000a900473ffffffffffffffffffffffffffffffffffffffff1673ffffffffffffffffffffffffffffffffffffffff16610636610fad565b73ffffffffffffffffffffffffffffffffffffffff161461068c576040517f08c379a00000000000000000000000000000000000000000000000000000000081526004016106839061198d565b60405180910390fd5b426006819055508060058190555050565b6000600260008373ffffffffffffffffffffffffffffffffffffffff1673ffffffffffffffffffffffffffffffffffffffff168152602001908152602001600020549050919050565b60008054906101000a900473ffffffffffffffffffffffffffffffffffffffff1673ffffffffffffffffffffffffffffffffffffffff16610725610fad565b73ffffffffffffffffffffffffffffffffffffffff161461077b576040517f08c379a00000000000000000000000000000000000000000000000000000000081526004016107729061196d565b60405180910390fd5b600073ffffffffffffffffffffffffffffffffffffffff1660008054906101000a900473ffffffffffffffffffffffffffffffffffffffff1673ffffffffffffffffffffffffffffffffffffffff167f8be0079c531659141344cd1fd0a4f28419497f9722a3daafe3b4186f6b6457e060405160405180910390a360008060006101000a81548173ffffffffffffffffffffffffffffffffffffffff021916908373ffffffffffffffffffffffffffffffffffffffff160217905550565b600160009054906101000a900473ffffffffffffffffffffffffffffffffffffffff1673ffffffffffffffffffffffffffffffffffffffff1661087a610fad565b73ffffffffffffffffffffffffffffffffffffffff16146108d0576040517f08c379a00000000000000000000000000000000000000000000000000000000081526004016108c79061198d565b60405180910390fd5b60011515600760009054906101000a900460ff161515146108f057600080fd5b6000600760006101000a81548160ff021916908315150217905550565b60008060009054906101000a900473ffffffffffffffffffffffffffffffffffffffff16905090565b600160009054906101000a900473ffffffffffffffffffffffffffffffffffffffff1673ffffffffffffffffffffffffffffffffffffffff16610977610fad565b73ffffffffffffffffffffffffffffffffffffffff16146109cd576040517f08c379a00000000000000000000000000000000000000000000000000000000081526004016109c49061198d565b60405180910390fd5b60001515600760009054906101000a900460ff161515146109ed57600080fd5b6001600760006101000a81548160ff021916908315150217905550565b6040518060400160405280600581526020017f4d4261727400000000000000000000000000000000000000000000000000000081525081565b6000610b06610a50610fad565b84610b0185604051806060016040528060258152602001611e8e6025913960036000610a7a610fad565b73ffffffffffffffffffffffffffffffffffffffff1673ffffffffffffffffffffffffffffffffffffffff16815260200190815260200160002060008a73ffffffffffffffffffffffffffffffffffffffff1673ffffffffffffffffffffffffffffffffffffffff1681526020019081526020016000205461146e9092919063ffffffff16565b610fb5565b6001905092915050565b6000610b24610b1d610fad565b84846111b0565b6001905092915050565b60008054906101000a900473ffffffffffffffffffffffffffffffffffffffff1673ffffffffffffffffffffffffffffffffffffffff16610b6d610fad565b73ffffffffffffffffffffffffffffffffffffffff1614610bc3576040517f08c379a0000000000000000000000000000000000000000000000000000000008152600401610bba9061196d565b60405180910390fd5b600073ffffffffffffffffffffffffffffffffffffffff168173ffffffffffffffffffffffffffffffffffffffff161415610c33576040517f08c379a0000000000000000000000000000000000000000000000000000000008152600401610c2a9061192d565b60405180910390fd5b8073ffffffffffffffffffffffffffffffffffffffff16600160009054906101000a900473ffffffffffffffffffffffffffffffffffffffff1673ffffffffffffffffffffffffffffffffffffffff167f697e4e68d3879b0dd3414a88905117bac8f0a54b0cd8e7779f909bf1a1cf568360405160405180910390a380600160006101000a81548173ffffffffffffffffffffffffffffffffffffffff021916908373ffffffffffffffffffffffffffffffffffffffff16021790555050565b6000600360008473ffffffffffffffffffffffffffffffffffffffff1673ffffffffffffffffffffffffffffffffffffffff16815260200190815260200160002060008373ffffffffffffffffffffffffffffffffffffffff1673ffffffffffffffffffffffffffffffffffffffff16815260200190815260200160002054905092915050565b600760009054906101000a900460ff1681565b60008054906101000a900473ffffffffffffffffffffffffffffffffffffffff1673ffffffffffffffffffffffffffffffffffffffff16610dcc610fad565b73ffffffffffffffffffffffffffffffffffffffff1614610e22576040517f08c379a0000000000000000000000000000000000000000000000000000000008152600401610e199061196d565b60405180910390fd5b600073ffffffffffffffffffffffffffffffffffffffff168173ffffffffffffffffffffffffffffffffffffffff161415610e92576040517f08c379a0000000000000000000000000000000000000000000000000000000008152600401610e89906118ed565b60405180910390fd5b8073ffffffffffffffffffffffffffffffffffffffff1660008054906101000a900473ffffffffffffffffffffffffffffffffffffffff1673ffffffffffffffffffffffffffffffffffffffff167f8be0079c531659141344cd1fd0a4f28419497f9722a3daafe3b4186f6b6457e060405160405180910390a3806000806101000a81548173ffffffffffffffffffffffffffffffffffffffff021916908373ffffffffffffffffffffffffffffffffffffffff16021790555050565b6000808284610f5e9190611a3f565b905083811015610fa3576040517f08c379a0000000000000000000000000000000000000000000000000000000008152600401610f9a9061194d565b60405180910390fd5b8091505092915050565b600033905090565b60011515610fc16114d2565b151514610fcd57600080fd5b60011515610fd9611544565b151514610fe557600080fd5b600073ffffffffffffffffffffffffffffffffffffffff168373ffffffffffffffffffffffffffffffffffffffff161415611055576040517f08c379a000000000000000000000000000000000000000000000000000000000815260040161104c906119cd565b60405180910390fd5b600073ffffffffffffffffffffffffffffffffffffffff168273ffffffffffffffffffffffffffffffffffffffff1614156110c5576040517f08c379a00000000000000000000000000000000000000000000000000000000081526004016110bc9061190d565b60405180910390fd5b80600360008573ffffffffffffffffffffffffffffffffffffffff1673ffffffffffffffffffffffffffffffffffffffff16815260200190815260200160002060008473ffffffffffffffffffffffffffffffffffffffff1673ffffffffffffffffffffffffffffffffffffffff168152602001908152602001600020819055508173ffffffffffffffffffffffffffffffffffffffff168373ffffffffffffffffffffffffffffffffffffffff167f8c5be1e5ebec7d5bd14f71427d1e84f3dd0314c0f7b2291e5b200ac8c7c3b925836040516111a391906119ed565b60405180910390a3505050565b600115156111bc6114d2565b1515146111c857600080fd5b600115156111d4611544565b1515146111e057600080fd5b600073ffffffffffffffffffffffffffffffffffffffff168373ffffffffffffffffffffffffffffffffffffffff161415611250576040517f08c379a0000000000000000000000000000000000000000000000000000000008152600401611247906119ad565b60405180910390fd5b600073ffffffffffffffffffffffffffffffffffffffff168273ffffffffffffffffffffffffffffffffffffffff1614156112c0576040517f08c379a00000000000000000000000000000000000000000000000000000000081526004016112b7906118cd565b60405180910390fd5b61132c81604051806060016040528060268152602001611e4060269139600260008773ffffffffffffffffffffffffffffffffffffffff1673ffffffffffffffffffffffffffffffffffffffff1681526020019081526020016000205461146e9092919063ffffffff16565b600260008573ffffffffffffffffffffffffffffffffffffffff1673ffffffffffffffffffffffffffffffffffffffff168152602001908152602001600020819055506113c181600260008573ffffffffffffffffffffffffffffffffffffffff1673ffffffffffffffffffffffffffffffffffffffff16815260200190815260200160002054610f4f90919063ffffffff16565b600260008473ffffffffffffffffffffffffffffffffffffffff1673ffffffffffffffffffffffffffffffffffffffff168152602001908152602001600020819055508173ffffffffffffffffffffffffffffffffffffffff168373ffffffffffffffffffffffffffffffffffffffff167fddf252ad1be2c89b69c2b068fc378daa952ba7f163c4a11628f55a4df523b3ef8360405161146191906119ed565b60405180910390a3505050565b60008383111582906114b6576040517f08c379a00000000000000000000000000000000000000000000000000000000081526004016114ad91906118ab565b60405180910390fd5b50600083856114c59190611a95565b9050809150509392505050565b6000801515600760009054906101000a900460ff16151514156114f85760019050611541565b61150061090d565b73ffffffffffffffffffffffffffffffffffffffff163373ffffffffffffffffffffffffffffffffffffffff16141561153c5760019050611541565b600090505b90565b6000600554600654426115579190611a95565b1115611566576001905061156b565b600090505b90565b60008135905061157d81611e11565b92915050565b60008135905061159281611e28565b92915050565b6000602082840312156115ae576115ad611b80565b5b60006115bc8482850161156e565b91505092915050565b600080604083850312156115dc576115db611b80565b5b60006115ea8582860161156e565b92505060206115fb8582860161156e565b9150509250929050565b60008060006060848603121561161e5761161d611b80565b5b600061162c8682870161156e565b935050602061163d8682870161156e565b925050604061164e86828701611583565b9150509250925092565b6000806040838503121561166f5761166e611b80565b5b600061167d8582860161156e565b925050602061168e85828601611583565b9150509250929050565b6000602082840312156116ae576116ad611b80565b5b60006116bc84828501611583565b91505092915050565b6116ce81611ac9565b82525050565b6116dd81611adb565b82525050565b60006116ee82611a23565b6116f88185611a2e565b9350611708818560208601611b1e565b61171181611b85565b840191505092915050565b6000611729602383611a2e565b915061173482611b96565b604082019050919050565b600061174c602683611a2e565b915061175782611be5565b604082019050919050565b600061176f602283611a2e565b915061177a82611c34565b604082019050919050565b6000611792602883611a2e565b915061179d82611c83565b604082019050919050565b60006117b5601b83611a2e565b91506117c082611cd2565b602082019050919050565b60006117d8602083611a2e565b91506117e382611cfb565b602082019050919050565b60006117fb602283611a2e565b915061180682611d24565b604082019050919050565b600061181e602583611a2e565b915061182982611d73565b604082019050919050565b6000611841602483611a2e565b915061184c82611dc2565b604082019050919050565b61186081611b07565b82525050565b61186f81611b11565b82525050565b600060208201905061188a60008301846116c5565b92915050565b60006020820190506118a560008301846116d4565b92915050565b600060208201905081810360008301526118c581846116e3565b905092915050565b600060208201905081810360008301526118e68161171c565b9050919050565b600060208201905081810360008301526119068161173f565b9050919050565b6000602082019050818103600083015261192681611762565b9050919050565b6000602082019050818103600083015261194681611785565b9050919050565b60006020820190508181036000830152611966816117a8565b9050919050565b60006020820190508181036000830152611986816117cb565b9050919050565b600060208201905081810360008301526119a6816117ee565b9050919050565b600060208201905081810360008301526119c681611811565b9050919050565b600060208201905081810360008301526119e681611834565b9050919050565b6000602082019050611a026000830184611857565b92915050565b6000602082019050611a1d6000830184611866565b92915050565b600081519050919050565b600082825260208201905092915050565b6000611a4a82611b07565b9150611a5583611b07565b9250827fffffffffffffffffffffffffffffffffffffffffffffffffffffffffffffffff03821115611a8a57611a89611b51565b5b828201905092915050565b6000611aa082611b07565b9150611aab83611b07565b925082821015611abe57611abd611b51565b5b828203905092915050565b6000611ad482611ae7565b9050919050565b60008115159050919050565b600073ffffffffffffffffffffffffffffffffffffffff82169050919050565b6000819050919050565b600060ff82169050919050565b60005b83811015611b3c578082015181840152602081019050611b21565b83811115611b4b576000848401525b50505050565b7f4e487b7100000000000000000000000000000000000000000000000000000000600052601160045260246000fd5b600080fd5b6000601f19601f8301169050919050565b7f45524332303a207472616e7366657220746f20746865207a65726f206164647260008201527f6573730000000000000000000000000000000000000000000000000000000000602082015250565b7f4f776e61626c653a206e6577206f776e657220697320746865207a65726f206160008201527f6464726573730000000000000000000000000000000000000000000000000000602082015250565b7f45524332303a20617070726f766520746f20746865207a65726f20616464726560008201527f7373000000000000000000000000000000000000000000000000000000000000602082015250565b7f4f776e61626c653a206e6577206d616e6167657220697320746865207a65726f60008201527f2061646472657373000000000000000000000000000000000000000000000000602082015250565b7f536166654d6174683a206164646974696f6e206f766572666c6f770000000000600082015250565b7f4f776e61626c653a2063616c6c6572206973206e6f7420746865206f776e6572600082015250565b7f4f776e61626c653a2063616c6c6572206973206e6f7420746865206d616e616760008201527f6572000000000000000000000000000000000000000000000000000000000000602082015250565b7f45524332303a207472616e736665722066726f6d20746865207a65726f20616460008201527f6472657373000000000000000000000000000000000000000000000000000000602082015250565b7f45524332303a20617070726f76652066726f6d20746865207a65726f2061646460008201527f7265737300000000000000000000000000000000000000000000000000000000602082015250565b611e1a81611ac9565b8114611e2557600080fd5b50565b611e3181611b07565b8114611e3c57600080fd5b5056fe45524332303a207472616e7366657220616d6f756e7420657863656564732062616c616e636545524332303a207472616e7366657220616d6f756e74206578636565647320616c6c6f77616e636545524332303a2064656372656173656420616c6c6f77616e63652062656c6f77207a65726fa264697066735822122025af7ed312f0f3c1555c9d0b7113b5cbd7aba0f22fb19f05b4bed872b4c7841064736f6c63430008060033",
  "immutableReferences": {},
  "source": "// SPDX-License-Identifier: Unlicensed\r\n\r\npragma solidity ^0.8.6;\r\n\r\n// import \"@openzeppelin/contracts/utils/Context.sol\"\r\nabstract contract Context {\r\n\r\n    constructor () { }\r\n\r\n    function _msgSender() internal view returns (address payable) {\r\n\r\n        return payable(msg.sender);\r\n    }\r\n\r\n    function _msgData() internal view returns (bytes memory) {\r\n\r\n        this;\r\n        return msg.data;\r\n    }\r\n}\r\n\r\n// import \"@openzeppelin/contracts/access/Ownable.sol\"\r\ncontract Ownable is Context {\r\n    address private _owner;\r\n    address private _manager;\r\n\r\n    event OwnershipTransferred(address indexed previousOwner, address indexed newOwner);\r\n    event ManagershipTransferred(address indexed previousManager, address indexed newManager);\r\n\r\n    constructor () {\r\n\r\n        address msgSender = _msgSender();\r\n        _owner = msgSender;\r\n        emit OwnershipTransferred(address(0), msgSender);\r\n    }\r\n\r\n    function owner() public view returns (address) {\r\n\r\n        return _owner;\r\n    }\r\n\r\n    modifier onlyOwner() {\r\n\r\n        require((_msgSender() == _owner), \"Ownable: caller is not the owner\");\r\n        _;\r\n    }\r\n    modifier onlyManager() {\r\n\r\n        require((_msgSender() == _manager), \"Ownable: caller is not the manager\");\r\n        _;\r\n    }\r\n    function renounceOwnership() public onlyOwner {\r\n\r\n        emit OwnershipTransferred(_owner, address(0));\r\n        _owner = address(0);\r\n    }\r\n\r\n    function transferOwnership(address newOwner) public onlyOwner {\r\n        require(newOwner != address(0), \"Ownable: new owner is the zero address\");\r\n        emit OwnershipTransferred(_owner, newOwner);\r\n        _owner = newOwner;\r\n    }\r\n\r\n    function transferManager(address newManager) public onlyOwner {\r\n        require(newManager != address(0), \"Ownable: new manager is the zero address\");\r\n\r\n        emit ManagershipTransferred(_manager, newManager);\r\n        _manager = newManager;\r\n    }\r\n}\r\n\r\n// import \"@openzeppelin/contracts/token/ERC20/IERC20.sol\"\r\ninterface IERC20 {\r\n\r\n    function totalSupply() external view returns (uint256);\r\n    function balanceOf(address account) external view returns (uint256);\r\n    function transfer(address recipient, uint256 amount) external returns (bool);\r\n    function allowance(address owner, address spender) external view returns (uint256);\r\n    function approve(address spender, uint256 amount) external returns (bool);\r\n    function transferFrom(address sender, address recipient, uint256 amount) external returns (bool);\r\n\r\n    event Transfer(address indexed from, address indexed to, uint256 value);\r\n    event Approval(address indexed owner, address indexed spender, uint256 value);\r\n}\r\n\r\nlibrary SafeMath {\r\n\r\n    function add(uint256 a, uint256 b) internal pure returns (uint256) {\r\n\r\n        uint256 c = a + b;\r\n        require(c >= a, \"SafeMath: addition overflow\");\r\n\r\n        return c;\r\n    }\r\n\r\n    function sub(uint256 a, uint256 b) internal pure returns (uint256) {\r\n\r\n        return sub(a, b, \"SafeMath: subtraction overflow\");\r\n    }\r\n\r\n    function sub(uint256 a, uint256 b, string memory errorMessage) internal pure returns (uint256) {\r\n\r\n        require(b <= a, errorMessage);\r\n        uint256 c = a - b;\r\n\r\n        return c;\r\n    }\r\n\r\n    function mul(uint256 a, uint256 b) internal pure returns (uint256) {\r\n\r\n        if (a == 0) {\r\n            return 0;\r\n        }\r\n\r\n        uint256 c = a * b;\r\n        require(c / a == b, \"SafeMath: multiplication overflow\");\r\n\r\n        return c;\r\n    }\r\n\r\n    function div(uint256 a, uint256 b) internal pure returns (uint256) {\r\n\r\n        return div(a, b, \"SafeMath: division by zero\");\r\n    }\r\n\r\n    function div(uint256 a, uint256 b, string memory errorMessage) internal pure returns (uint256) {\r\n\r\n        require(b > 0, errorMessage);\r\n        uint256 c = a / b;\r\n\r\n        return c;\r\n    }\r\n\r\n    function mod(uint256 a, uint256 b) internal pure returns (uint256) {\r\n\r\n        return mod(a, b, \"SafeMath: modulo by zero\");\r\n    }\r\n\r\n    function mod(uint256 a, uint256 b, string memory errorMessage) internal pure returns (uint256) {\r\n\r\n        require(b != 0, errorMessage);\r\n        return a % b;\r\n    }\r\n}\r\n\r\ncontract ERC20 is Context, IERC20, Ownable {\r\n\r\n    using SafeMath for uint256;\r\n\r\n    mapping (address => uint256) private _balances;\r\n\r\n    mapping (address => mapping (address => uint256)) private _allowances;\r\n\r\n    uint256 private _totalSupply;\r\n    uint256 private duration=0;\r\n    uint256 private lastrun;\r\n    bool public tokenLock = false;\r\n\r\n    constructor () {\r\n        lastrun=block.timestamp;\r\n    }\r\n\r\n    function totalSupply() public override view returns (uint256) {\r\n\r\n        return _totalSupply;\r\n    }\r\n\r\n    function balanceOf(address account) public override view returns (uint256) {\r\n\r\n        return _balances[account];\r\n    }\r\n\r\n    function transfer(address recipient, uint256 amount) public override returns (bool) {\r\n\r\n        _transfer(_msgSender(), recipient, amount);\r\n        return true;\r\n    }\r\n\r\n    function allowance(address owner, address spender) public override view returns (uint256) {\r\n\r\n        return _allowances[owner][spender];\r\n    }\r\n\r\n    function approve(address spender, uint256 amount) public override returns (bool) {\r\n\r\n        _approve(_msgSender(), spender, amount);\r\n        return true;\r\n    }\r\n\r\n    function transferFrom(address sender, address recipient, uint256 amount) public override returns (bool) {\r\n\r\n        _transfer(sender, recipient, amount);\r\n        _approve(sender, _msgSender(), _allowances[sender][_msgSender()].sub(amount, \"ERC20: transfer amount exceeds allowance\"));\r\n        return true;\r\n    }\r\n\r\n    function increaseAllowance(address spender, uint256 addedValue) public returns (bool) {\r\n\r\n        _approve(_msgSender(), spender, _allowances[_msgSender()][spender].add(addedValue));\r\n        return true;\r\n    }\r\n\r\n    function decreaseAllowance(address spender, uint256 subtractedValue) public returns (bool) {\r\n\r\n        _approve(_msgSender(), spender, _allowances[_msgSender()][spender].sub(subtractedValue, \"ERC20: decreased allowance below zero\"));\r\n        return true;\r\n    }\r\n\r\n    function _transfer(address sender, address recipient, uint256 amount) internal {\r\n\r\n        require(isTransferable() == true);\r\n        require(isblockperiod() == true);\r\n        require(sender != address(0), \"ERC20: transfer from the zero address\");\r\n        require(recipient != address(0), \"ERC20: transfer to the zero address\");\r\n\r\n        _balances[sender] = _balances[sender].sub(amount, \"ERC20: transfer amount exceeds balance\");\r\n        _balances[recipient] = _balances[recipient].add(amount);\r\n        emit Transfer(sender, recipient, amount);\r\n    }\r\n\r\n    function _mint(address account, uint256 amount) internal {\r\n\r\n        require(account != address(0), \"ERC20: mint to the zero address\");\r\n\r\n        _totalSupply = _totalSupply.add(amount);\r\n        _balances[account] = _balances[account].add(amount);\r\n        emit Transfer(address(0), account, amount);\r\n    }\r\n\r\n    function _burn(address account, uint256 amount) internal {\r\n\r\n        require(account != address(0), \"ERC20: burn from the zero address\");\r\n\r\n        _balances[account] = _balances[account].sub(amount, \"ERC20: burn amount exceeds balance\");\r\n        _totalSupply = _totalSupply.sub(amount);\r\n        emit Transfer(account, address(0), amount);\r\n    }\r\n\r\n    function _approve(address owner, address spender, uint256 amount) internal {\r\n\r\n        require(isTransferable() == true);\r\n        require(isblockperiod() == true);\r\n        require(owner != address(0), \"ERC20: approve from the zero address\");\r\n        require(spender != address(0), \"ERC20: approve to the zero address\");\r\n\r\n        _allowances[owner][spender] = amount;\r\n        emit Approval(owner, spender, amount);\r\n    }\r\n\r\n    function _burnFrom(address account, uint256 amount) internal {\r\n\r\n        _burn(account, amount);\r\n        _approve(account, _msgSender(), _allowances[account][_msgSender()].sub(amount, \"ERC20: burn amount exceeds allowance\"));\r\n    }\r\n    \r\n    function isTransferable() private view returns (bool)\r\n    {\r\n        if(tokenLock == false)\r\n        {\r\n            return true;\r\n        }\r\n        else if(msg.sender == owner())\r\n        {\r\n            return true;\r\n        }\r\n        \r\n        return false;\r\n    }\r\n    \r\n    function setTokenUnlock() onlyManager public\r\n    {\r\n        require(tokenLock == true);        \r\n        tokenLock = false;\r\n    }\r\n    \r\n    function setTokenLock() onlyManager public\r\n    {\r\n        require(tokenLock == false);        \r\n        tokenLock = true;\r\n    }\r\n\r\n    function isblockperiod() private view returns (bool)\r\n    {\r\n        if(block.timestamp-lastrun>duration)\r\n        {\r\n            return true;\r\n        }        \r\n        return false;\r\n    }\r\n    function setblockperiod(uint256 _duration) onlyManager public{\r\n        lastrun=block.timestamp;\r\n        duration=_duration;\r\n    }\r\n}\r\n\r\ncontract Token is ERC20 {\r\n\r\n    string constant public name = \"MikeBart\";\r\n    string constant public symbol = \"MBart\";\r\n    uint8 constant public decimals = 18;\r\n    uint256 constant public initialSupply = 1000 * 10**18;\r\n\r\n    constructor () {\r\n\r\n        _mint(msg.sender, initialSupply);\r\n    }\r\n    \r\n    function showblock() public view returns(uint256){\r\n        return block.timestamp;\r\n    }\r\n}\r\n",
  "sourcePath": "E:\\Workspace\\Realestate-presale-project\\contracts\\Token.sol",
  "compiler": {
    "name": "solc",
    "version": "0.8.6+commit.11564f7e.Emscripten.clang"
  },
  "schemaVersion": "3.4.3",
  "updatedAt": "2021-11-30T23:47:36.019Z",
  "networkType": "ethereum",
  "devdoc": {
    "kind": "dev",
    "methods": {},
    "version": 1
  },
  "userdoc": {
    "kind": "user",
    "methods": {},
    "version": 1
  }
}